:020000040800F2
:10000000700A002001010008DD1C0008731B0008B5
:10001000D91C0008E70100089D1E00080000000030
:100020000000000000000000000000000D1D00089E
:100030009502000800000000E11C00080F1D0008E8
:100040001B0100081B0100081B0100081B01000820
:100050001B0100081B0100081B0100081B01000810
:100060001B0100081B0100081B0100081B01000800
:100070001B0100081B0100081B0100081B010008F0
:100080001B0100081B0100081B0100081B010008E0
:100090008D1E00081B0100081B0100081B01000841
:1000A0001B0100081B0100081B0100081B010008C0
:1000B000811D00081B0100081B0100081B0100082E
:1000C0001B0100081B0100081B0100081B010008A0
:1000D0001B0100081B0100081B0100081B01000890
:1000E0001B0100081B0100081B010008DFF80CD0F1
:1000F00000F03CF800480047351F0008700A002057
:100100000648804706480047FEE7FEE7FEE7FEE7B1
:10011000FEE7FEE7FEE7FEE7FEE7FEE77D1D0008DF
:10012000ED00000840EA01039B0703D009E008C97D
:10013000121F08C0042AFAD203E011F8013B00F8AC
:10014000013B521EF9D27047D2B201E000F8012BF8
:10015000491EFBD270470022F6E710B513460A4647
:1001600004461946FFF7F0FF204610BD064C074D28
:1001700006E0E06840F0010394E807009847103477
:10018000AC42F6D3FFF7B6FF90430008B043000837
:1001900070B58C1810F8015B15F0070301D110F849
:1001A000013B2A1106D110F8012B03E010F8016B76
:1001B00001F8016B5B1EF9D12B0705D40023521EF9
:1001C0000DD401F8013BFAE710F8013BCB1A921C61
:1001D00003E013F8015B01F8015B521EF9D5A1425F
:1001E000D8D3002070BD00BFFEE7000000B585B089
:1001F00000208DF806002548009014200290244825
:1002000003900A2004900220ADF804000121684602
:1002100002F09AF800208DF806001C480090142087
:1002200002901B4803900A2004904FF40060ADF840
:1002300004000021684602F087F801208DF80600CE
:100240001248009014200290114803900A20049054
:100250004FF48050ADF804000221684602F074F8B3
:1002600001208DF8060009480090142002900848EB
:100270000390C82004904FF40050ADF8040003210F
:10028000684602F061F805B000BD0000000C0140B6
:10029000A0860100704772B600BFFEE710B50246A7
:1002A00092F82030012B01D0022B06D11068406952
:1002B000084314686061002010BD506A40F480203B
:1002C00050620120F8E7F0B504460D461E4694F84A
:1002D000207020688368A86800B900E000BF012F83
:1002E00001D0022F7DD103F0806030B903F00060AF
:1002F00018B903F0805000287ED0C3F301610120BB
:1003000088403060A86860B9B5F800C0E86840EA85
:100310004C5C206800F5C07000EB0110C0F800C014
:100320000FE0D5E901C040EACC00D5F80CC040EAA6
:100330000C00D4F800C00CF5C07C0CEB011CCCF810
:100340000000D5F810C0206800F5C07000EB011067
:10035000C0F804C0287D01280ED1206800F5C070C7
:1003600000EB0110406840F4807C206800F5C0700C
:1003700000EB0110C0F804C0D079000692F806C066
:1003800040EA0C4092F805C040EA0C2092F804C004
:1003900040EA0C00D4F800C00CF5C07C0CEB011C4A
:1003A000CCF80C00D078000692F802C040EA0C406D
:1003B00092F801C040EA0C2092F800C040EA0C001C
:1003C000D4F800C00CF5C07C0CEB011CCCF8080084
:1003D000206800F5C07000EB0110006840F0010CCF
:1003E00001E00FE008E0206800F5C07000EB0110AC
:1003F000C0F800C00020F0BD606A40F400106062E8
:100400000120F8E7606A40F4802060620120F2E792
:10041000F0B504460A46216894F82050012D01D019
:10042000022D74D1D1F8000240F00100C1F80002A1
:10043000107D00F01F06012000FA06F3D1F81C021F
:100440009843C1F81C02D069C8B9D1F80C0298438E
:10045000C1F80C02908880B2968940EA064601F500
:100460001070576940F83760108880B2168940EAEA
:10047000064601F51070576900EBC7004660D06969
:10048000012819D1D1F80C021843C1F80C02908848
:1004900080B2168840EA064601F51070576940F8A8
:1004A0003760908980B2168940EA064601F51070DF
:1004B000576900EBC7004660906928B9D1F804027B
:1004C0009843C1F8040204E0D1F804021843C1F8CB
:1004D0000402106928B9D1F814029843C1F8140233
:1004E00004E0D1F814021843C1F81402106A01287C
:1004F00004D1D1F81C021843C1F81C02D1F8000243
:1005000020F00100C1F800020020F0BDFFE7606AA2
:1005100040F4802060620120F7E7704770B5044620
:1005200094F82050012D01D0022D7DD151B92068C1
:10053000C06800F0030080B9606A40F40010606297
:10054000012070BD2068006900F0030028B9606ACE
:1005500040F4001060620120F3E7206800F5D870D5
:1005600000EB0110006800F004009060906840B952
:10057000206800F5D87000EB01100068400D106095
:1005800007E0206800F5D87000EB01100068C00893
:100590005060206800F5D87000EB0110006800F092
:1005A0000200D060206800F5D87000EB01104068B0
:1005B00000F00F00082802D30820106108E020682E
:1005C00000F5D87000EB0110406800F00F001061DA
:1005D000206800F5D87000EB0110406800F47F40FF
:1005E000000A9061206800F5D87000EB01104068A7
:1005F000000C5061206800F5D87000EB0110806895
:100600001870206800F5D87000EB0110806800F4C5
:100610007F40000A5870206800F5D87000EB011088
:10062000806800F47F0000E03CE0000C98702068D7
:1006300000F5D87000EB01108068000ED8702068BB
:1006400000F5D87000EB0110C0681871206800F543
:10065000D87000EB0110C06800F47F40000A5871A8
:10066000206800F5D87000EB0110C06800F47F002E
:10067000000C9871206800F5D87000EB0110C0687C
:10068000000ED87131B92068C06840F0200026689B
:10069000F06005E02068006940F0200026683061C5
:1006A00000204EE7606A40F480206062012048E745
:1006B0002DE9F05F04460025206846692068D0F8DF
:1006C0000490206887682068D0F80CA02068D0F8D3
:1006D00010B02068D0F8188006F00100002855D02E
:1006E00007F00100C0B101202168886007F0020016
:1006F00018B1204600F057FA0EE007F0040010B1E0
:1007000045F4006508E007F0080010B145F4805595
:1007100002E0204600F046FA07F48070C8B14FF4BA
:1007200080702168886007F4007018B1204600F0DE
:100730003CFA0EE007F4806010B145F4005508E083
:1007400007F4006010B145F4804502E0204600F057
:100750002BFA07F48030C8B14FF4803021688860EC
:1007600007F4003018B1204600F021FA0EE007F43B
:10077000802010B145F4004508E007F4002010B1D6
:1007800045F4803502E0204600F010FA06F008003B
:1007900038B10AF0100020B145F40075102021682E
:1007A000C86006F0040040B10AF0080028B1082033
:1007B0002168C860204600F0A9F906F0020038B1AF
:1007C0002068C06800F0030010B1204600F0A0F9D6
:1007D00006F0400038B10BF0100020B145F4806500
:1007E00010202168086106F0200040B10BF00800DD
:1007F00028B1082021680861204600F0A1F906F020
:10080000100038B12068006900F0030010B12046E4
:1008100000F097F906F4003040B109F0100028B15B
:10082000102021684860204600F08CF906F48030E2
:1008300040B109F0080028B108202168486020462E
:1008400000F0B6F906F4004088B309F0040078B36C
:1008500006F4807020B108F0010008B145F00105F0
:1008600006F4007020B108F0020008B145F002055E
:1008700006F4806020B108F0040008B145F00405DA
:1008800006F40060A0B108F0700088B108F07000B4
:10089000402817D006DC10280BD020280CD0302898
:1008A00019D10CE0502810D0602814D110E01DE0C0
:1008B00019E045F008050FE045F010050CE045F0A3
:1008C000200509E045F0400506E045F0800503E01D
:1008D00045F4807500E000BF00BF2068806920F00B
:1008E0007000216888610420216848602DB1606A29
:1008F000284360622046FFF710FEBDE8F09F70B508
:1009000004460CB9012070BD94F8200010B92046AF
:1009100000F0B0F82068006840F00100216808602D
:1009200000F0E6FA05460DE000F0E2FA401B0A2866
:1009300008D9606A40F400306062052084F8200025
:100940000120E0E72068406800F001000028EBD0BB
:100950002068006820F002002168086000F0C8FAF2
:1009600005460DE000F0C4FA401B0A2808D9606A69
:1009700040F400306062052084F820000120C2E7C6
:100980002068406800F002000028EBD1207E01289A
:1009900006D12068006840F080002168086005E00A
:1009A0002068006820F0800021680860607E0128CF
:1009B00006D12068006840F040002168086005E02A
:1009C0002068006820F0400021680860A07E0128AF
:1009D00006D12068006840F020002168086005E02A
:1009E0002068006820F0200021680860E07E01286F
:1009F00006D12068006820F010002168086005E03A
:100A00002068006840F0100021680860207F0128FD
:100A100006D12068006840F008002168086005E001
:100A20002068006820F0080021680860607F0128C5
:100A300006D12068006840F004002168086005E0E5
:100A40002068006820F0040021680860D4E90201F1
:100A5000084321690843616908436168491E0843E6
:100A60002168C86100206062012084F82000002015
:100A700049E7000010B586B00446002002900390BC
:100A8000049005901E492068884236D100BF1D4859
:100A9000C06940F000701B49C8610846C06900F099
:100AA0000070019000BF00BF00BF0846806940F0A1
:100AB000040088610846806900F00400019000BFCE
:100AC00000BFC814029000200390049002A90E48B1
:100AD00000F070F84FF48050029002200390032041
:100AE000059002A9084800F065F8002204211420AE
:100AF00000F084FA142000F071FA06B010BD000076
:100B000000640040001002400008014070470000EF
:100B100010B5044606492068884208D1054B064AAC
:100B200000212046FFF7FAFC01200449087010BD9F
:100B30000064004029010020B405002028010020A5
:100B400070477047704770B5044694F8200001283C
:100B500022D1022084F820002068006820F00100E3
:100B60002168086000F0C4F905460DE000F0C0F906
:100B7000401B0A2808D9606A40F4003060620520F2
:100B800084F82000012070BD2068406800F001005A
:100B90000028EBD16062F6E7606A40F400206062F2
:100BA0000120F0E770477047704770477047704703
:100BB000704700002DE9F8470346002294466EE195
:100BC0004FF0010808FA02F4D1F8008008EA0400A6
:100BD000A0427DD1DFF8DCA2D1F80480A8EB0A099D
:100BE000D0453AD014DCB8F1030F50D009DCB8F18D
:100BF000000F31D0B8F1010F1CD0B8F1020F49D16C
:100C000020E0B8F1110F18D0B8F1120F42D11EE058
:100C1000B9F5881F25D006DCB9F5803F20D0B9F59D
:100C2000801F37D11AE0B9F5001F18D0B9F5041F9D
:100C300030D117E0D1F80CC02DE0D1F80C8008F1CC
:100C4000040C28E0D1F80C8008F1080C23E0D1F85E
:100C50000C8008F10C0C1EE000BF00BF00BF00BFFD
:100C600000BF00BFD1F80880B8F1000F02D14FF0EB
:100C7000040C0BE0D1F80880B8F1010F03D14FF05C
:100C8000080C1C6102E04FF0080C5C6103E04FF0BF
:100C9000000C00E000BF00BFFF2801D8984601E02B
:100CA00003F104084646FF2802D84FEA820803E011
:100CB000A2F108084FEA88084746D6F800804FF0AE
:100CC0000F0909FA07F928EA09080CFA07F900E000
:100CD00088E048EA0908C6F80080D1F8048008F0E6
:100CE0008058B8F1805F7DD100BFDFF8CC81D8F8A3
:100CF000188048F00108DFF8C091C9F81880C8468C
:100D0000D8F8188008F00108CDF8008000BF00BFB7
:100D10004FEAB9384FEA920958F829504FEA8278D9
:100D20004FEA18794FF00F0808FA09F825EA080584
:100D3000DFF88881434502D14FF0000816E0DFF864
:100D40008081434502D14FF001080FE0DFF8748144
:100D5000434502D14FF0020808E0DFF86C814345BB
:100D600002D14FF0030801E04FF004084FEA827906
:100D70004FEA197908FA09F848EA0505DFF84C81C5
:100D80004FEA920948F82950D1F8048008F48018F5
:100D9000B8F5801F0AD1DFF83881D8F8008048EA1A
:100DA0000008DFF82C91C9F8008009E0DFF8208105
:100DB000D8F8008028EA0008DFF81491C9F800800C
:100DC000D1F8048008F40018B8F5001F10D1DFF83E
:100DD000008108F10408D8F8008048EA0008DFF82C
:100DE000F09000E05AE009F10409C9F800800DE034
:100DF000DFF8DC8008F10408D8F8008028EA000851
:100E0000DFF8CC9009F10409C9F80080D1F804801A
:100E100008F40038B8F5003F0ED1DFF8B480A8F12F
:100E20000408D8F8008048EA0008DFF8A490A9F187
:100E30000409C9F800800DE0DFF89480A8F10408E7
:100E4000D8F8008028EA0008DFF88490A9F10409A6
:100E5000C9F80080D1F8048008F48038B8F5803FE4
:100E60000ED1DFF86C80A8F10808D8F8008048EAB5
:100E70000008DFF85C90A9F10809C9F800800DE0CE
:100E8000DFF84C80A8F10808D8F8008028EA0008AC
:100E9000DFF83C90A9F10809C9F80080521CD1F88C
:100EA000008028FA02F8B8F1000F7FF489AEBDE89F
:100EB000F8870000000011100010024000080140F7
:100EC000000C0140001001400014014008000140E6
:100ED00008040140024693680B400BB1012000E07A
:100EE000002070470AB1016101E00B040361704703
:100EF00001480068704700000000002003480068B7
:100F0000034909780844014908607047000000203F
:100F10000800002010B50848006840F0100006499D
:100F20000860032000F0A8F80F2000F007F800F098
:100F30002BF8002010BD00000020024070B50446D0
:100F40000E4800784FF47A71B1FBF0F00C49096853
:100F5000B1FBF0F5284600F0D3FB08B1012070BDCD
:100F6000102C07D200222146501E00F047F80548F9
:100F7000046001E00120F2E70020F0E70800002013
:100F80000C0000200400002008B500BF1148806953
:100F900040F001000F4988610846806900F00100B7
:100FA000009000BF00BF00BF0846C06940F08050FD
:100FB000C8610846C06900F08050009000BF00BFC3
:100FC00000BF0549486820F0E06040F000704860CC
:100FD00000BF08BD00100240000001400146084665
:100FE000002809DB00F01F0301229A4043099B00FF
:100FF00003F1E023C3F8002100BF70472DE9F05F43
:1010000080460D461646002700F04AFF074639463F
:101010002A46334601F00700C0F1070ABAF1040F6F
:1010200002D94FF0040A01E0C0F1070AD14600F1ED
:10103000040ABAF1070F02D24FF0000A01E0A0F152
:10104000030AD4464FF0010A0AFA09FAAAF1010A82
:101050000AEA020A0AFA0CFA4FF0010B0BFA0CFB2F
:10106000ABF1010B0BEA030B4AEA0B0421464046A5
:1010700000F01EFFBDE8F09F00BF00F00702064B26
:1010800019684FF6FF031940044B0B4343EA022152
:10109000014B196000BF70470CED00E00000FA053D
:1010A00070B504460D460CB9012070BD5A48006861
:1010B00000F00700A8420ED25748006820F0070051
:1010C0002843554908600846006800F00700A84218
:1010D00001D00120E9E7207800F0020002281DD1AC
:1010E000207800F00400042805D14C48406840F402
:1010F000E0604A494860207800F00800082805D1DF
:101100004648406840F4605044494860434840685D
:1011100020F0F000A168084340494860207800F0C2
:10112000010078B36068012806D13C48006800F4EB
:10113000003090B90120B8E76068022806D137482E
:10114000006800F0007040B90120AEE73348006845
:1011500000F0020008B90120A7E73048406820F0FD
:101160000300616808432D494860FFF7C1FE064649
:1011700009E0FFF7BDFE801B41F28831884202D9A9
:10118000032092E707E02548406800F00C00616802
:10119000B0EB810FEDD12048006800F00700A842B5
:1011A0000ED91D48006820F0070028431A4908603E
:1011B0000846006800F00700A84201D0012074E74B
:1011C000207800F00400042807D11448406820F477
:1011D000E060E168084311494860207800F00800A9
:1011E000082808D10D48406820F46050216940EA81
:1011F000C1000A49486000F019F808494968C1F37C
:101200000311074A515CC840064908600648006857
:10121000FFF794FE002048E7002002400010024043
:10122000B62B00080C0000200400002070B500213F
:101230000022002400230020134D696801F00C05F2
:10124000F5B1042D02D0082D19D101E00F4819E0A5
:101250000F4DC1F38346AB5D01F4803555B10A4DA6
:101260006D68C5F340450B4E725D084D5D43B5FB9F
:10127000F2F402E0084D03FB05F4204602E000BF53
:10128000024800BF00BF70BD0010024000127A008B
:10129000A42B0008B42B000800093D00F8B5044653
:1012A0000CB90120F8BD207800F00100002878D0AA
:1012B000F848406800F00C0004280CD0F54840685D
:1012C00000F00C00082811D1F248406800F480308A
:1012D000B0F5803F0AD1EF48006800F400300028E4
:1012E0005FD0606800285CD10120DBE700BF606848
:1012F000B0F5803F06D1E748006840F48030E5490A
:10130000086028E0606858B9E248006820F480303E
:10131000E04908600846006820F4802008601AE070
:101320006068B0F5A02F0BD1DA48006840F4802047
:10133000D84908600846006840F4803008600AE038
:10134000D448006820F48030D2490860084600681C
:1013500020F48020086000BF606888B1FFF7C8FDF6
:10136000054606E0FFF7C4FD401B642801D90320B1
:1013700098E7C848006800F400300028F2D010E078
:10138000FFF7B6FD054606E0FFF7B2FD401B6428F7
:1013900001D9032086E7BF48006800F40030002828
:1013A000F2D1207800F00200022857D1B9484068F5
:1013B00000F00C0050B1B748406800F00C0008285D
:1013C00018D1B448406800F4803098B9B14800683A
:1013D00000F0020020B12069012801D0012061E75E
:1013E000AC48006820F0F800616940EAC100A949F2
:1013F000086033E02069E8B10120A7490860FFF7E1
:1014000077FD054606E0FFF773FD401B022801D972
:10141000032047E79F48006800F002000028F2D050
:101420009C48006820F0F800616940EAC1009949D1
:10143000086013E0002098490860FFF759FD054651
:1014400006E0FFF755FD401B022801D9032029E7DC
:101450009048006800F002000028F2D1207800F0E7
:10146000080008282DD1A069B8B101208B49086077
:10147000FFF73EFD054606E0FFF73AFD401B022858
:1014800001D903200EE78348406A00F002000028DB
:10149000F2D0012000F026FC13E000207F49086014
:1014A000FFF726FD054606E0FFF722FD401B022858
:1014B00001D90320F6E67748406A00F002000028D0
:1014C000F2D1207800F00400042873D1002771487D
:1014D000C06900F0805070B900BF6E48C06940F02C
:1014E00080506C49C8610846C06900F08050009087
:1014F00000BF00BF01276A48006800F48070B0B9DF
:101500006748006840F4807065490860FFF7F0FCA8
:10151000054606E0FFF7ECFC401B642801D90320D8
:10152000C0E65F48006800F480700028F2D000BF79
:10153000E068012806D15748006A40F0010055498B
:10154000086227E0E06858B95248006A20F00100BC
:10155000504908620846006A20F00400086219E059
:10156000E06805280BD14B48006A40F00400494967
:1015700008620846006A40F0010008620AE0454837
:10158000006A20F00100434908620846006A20F022
:101590000400086200BFE068A0B1FFF7A9FC05469F
:1015A00009E0FFF7A5FC401B41F28831884202D9CF
:1015B000032077E622E03748006A00F002000028A6
:1015C000EFD012E0FFF794FC054608E0FFF790FC2F
:1015D000401B41F28831884201D9032062E62D4840
:1015E000006A00F002000028F0D1012F05D129483F
:1015F000C06920F080502749C86100BFE069C8B3C6
:101600002448406800F00C00082860D0E0690228F7
:1016100048D1002020490866FFF76AFC054606E02D
:10162000FFF766FC401B022801D903203AE619485F
:10163000006800F000700028F2D1206AB0F5803F09
:1016400007D11448406820F40030A16808431149CC
:101650004860D4E9080108430E49496821F474112F
:1016600008430C49486001200B490866FFF740FC1D
:10167000054607E03DE0FFF73BFC401B022801D98F
:1016800003200FE60348006800F000700028F2D045
:101690002FE000000010024000004242800442425D
:1016A00000700040002014490866FFF721FC054641
:1016B00006E0FFF71DFC401B022801D90320F1E5DD
:1016C0000E48006800F000700028F2D111E0E069D7
:1016D000012800D1E6E50948466806F48031206A11
:1016E000814204D106F47011606A814201D0012068
:1016F000D8E50020D6E5000000004242001002407C
:1017000070B504462546681EB0F1807F01D30120E4
:101710000FE0681E4FF0E02148610F214FF0FF30CD
:1017200000F0C6FB00204FF0E0218861072008612F
:10173000002070BD7047704730B502460B4600BFB1
:1017400092F83C00012801D1022030BD012082F82E
:101750003C0000BF022082F83D0010684468106819
:10176000816824F070041868044310684460104DC8
:101770001068A8420BD01068B0F1804F07D00D4D13
:101780001068A84203D00C4D1068A84205D121F082
:1017900080015868014310688160012082F83D0093
:1017A00000BF002082F83C0000BF00BFCDE7000072
:1017B000002C0140000400400008004010B5044621
:1017C0000CB9012010BD94F83D0028B9002084F820
:1017D0003C00204600F026F8022084F83D00211D40
:1017E000206800F0D5FA012084F8460000BF84F894
:1017F0003E0001213F200155402001554120015567
:1018000000BF00BF012084F842004320015544205E
:1018100001554520015500BF012084F83D000020FE
:10182000D0E7000038B504462068B0F1804F15D1EC
:1018300000BF0B48C06940F001000949C861084673
:10184000C06900F00100009000BF00BF0022052128
:101850001C20FFF7D3FB1C20FFF7C0FB38BD0000A6
:1018600000100240014691F83D00012801D00120FE
:101870007047022081F83D000868C06840F0010010
:101880000B68D860124B086898420BD00868B0F11A
:10189000804F07D00F4B0868984203D00E4B086862
:1018A00098420CD10868806800F00702062A0CD024
:1018B0000868006840F001000B68186005E00868DF
:1018C000006840F001000B6818600020D0E70000BD
:1018D000002C014000040040000800402DE9F041C8
:1018E00004460D46002700BF94F83C00012802D1B1
:1018F0000220BDE8F081012084F83C0000BF0220F6
:1019000084F83D002068866826F0770626F47F4636
:10191000206886602868502833D00CDC202850D0FE
:1019200004DC00284BD0102851D149E0302849D0A0
:1019300040284CD139E060282DD0702807D0B0F570
:10194000805F03D0B0F5005F41D10DE041E0D5E903
:1019500002136A68206800F05DFA2068866846F025
:1019600077062068866034E0D5E902136A6820684B
:1019700000F050FA2068806840F480402168886058
:1019800027E0EA686968206800F058FA502120686A
:1019900000F04BFA1DE0EA686968206800F061FA1F
:1019A0006021206800F041FA13E0EA686968206865
:1019B00000F044FA4021206800F037FA09E000BF47
:1019C00000BF00BF2968206800F02FFA01E001275E
:1019D00000BF00BF012084F83D0000BF002084F854
:1019E0003C0000BF384684E7704770B50446206865
:1019F000C5682068066906F00200022819D105F0C2
:101A00000200022815D1401F2168086101202077BB
:101A10002068806900F0030018B12046FFF7E4FF5A
:101A200005E0204600F097F8204600F095F80020E9
:101A3000207706F00400042819D105F004000428DA
:101A400015D1C04321680861022020772068806991
:101A500000F4407018B12046FFF7C6FF05E02046AD
:101A600000F079F8204600F077F80020207706F0A3
:101A70000800082819D105F00800082815D1C0432E
:101A800021680861042020772068C06900F0030005
:101A900018B12046FFF7A8FF05E0204600F05BF8EC
:101AA000204600F059F80020207706F0100010289A
:101AB00019D105F01000102815D1C0432168086124
:101AC000082020772068C06900F4407018B12046D3
:101AD000FFF78AFF05E0204600F03DF8204600F0C1
:101AE0003BF80020207706F0010048B105F0010026
:101AF00030B16FF0010021680861204600F02EF837
:101B000006F08000802809D105F08000802805D1EA
:101B1000C043216808612046FFF70CFE06F0400034
:101B2000402809D105F04000402805D1C043216874
:101B30000861204600F01CF806F02000202809D19A
:101B400005F02000202805D1C04321680861204607
:101B5000FFF7F1FD70BD7047704700000168B1F1FB
:101B6000804F02D10121014A1170704710000020FE
:101B7000704700BFFEE7000010B50F480F4908602E
:101B80000620486000210D4881604FF08071C160DF
:101B90004FF4E02101614FF4001141610021017611
:101BA00041768176C17601774177FEF7A8FE08B1CC
:101BB000FEF771FB10BD00000064004034010020FE
:101BC00000B585B00020019002900390049000BF02
:101BD0002348806940F020002149886108468069D7
:101BE00000F02000009000BF00BF00BF08468069E1
:101BF00040F0080088610846806900F00800009005
:101C000000BF00BF00BF0846806940F00400886143
:101C10000846806900F00400009000BF00BF002269
:101C20004FF440710F48FFF75DF940F60200019054
:101C3000002002900120039001A90A48FEF7BAFF94
:101C40004FF4407001901120029000200390022078
:101C5000049001A90348FEF7ADFF05B000BD0000E8
:101C600000100240000C014000B587B00020039036
:101C7000049005900690019002904FF08040154925
:101C8000086041F61F40486000211248816040F220
:101C9000E731C1600021016180218161FFF78EFD84
:101CA00008B1FEF7F8FA4FF48050039003A90948F1
:101CB000FFF714FE08B1FEF7EEFA00200190029043
:101CC00001A90448FFF738FD08B1FEF7E4FA07B0B0
:101CD00000BD00005C01002000BFFEE700BFFEE782
:101CE0007047000008B508490968C9084FF47A72BE
:101CF000B1FBF2F14143009100BF00BF00994A1EC1
:101D000000920029F9D108BD0C000020704710B5E1
:101D1000FFF7F4F810BD00B58FB0282105A8FEF735
:101D20001AFA14216846FEF716FA012005900004FD
:101D30000690002007900120099002200C90C1031A
:101D40000D914FF4E0110E9105A8FFF7A7FA08B125
:101D5000FEF7A1FA0F2000900220019000200290CF
:101D60004FF4806003900020049002216846FFF742
:101D700097F908B1FEF78FFA0FB000BD7047000069
:101D800010B50248FFF731FE10BD00005C010020D5
:101D900010B502681C4B984208D0B0F1804F05D0B6
:101DA0001A4B984202D01A4B984203D122F070028B
:101DB0004B681A43144B984208D0B0F1804F05D0BD
:101DC000124B984202D0124B984203D122F4407237
:101DD000CB681A4322F080034C6943EA0402026094
:101DE0008B68C3620B688362074B984201D10B6911
:101DF000036301234361036903F001031BB103691A
:101E000023F00103036110BD002C014000040040D9
:101E10000008004030B50C46816821F47F4142EA59
:101E2000032525432943816030BD0A46816821F09E
:101E3000700142F0070319438160704730B50B46CB
:101E40001446026A056A25F001050562816921F0E0
:101E5000F00141EA041122F00A021A438161026290
:101E600030BD30B50B461446026A056A25F01005F0
:101E70000562816921F4704141EA043122F0A00237
:101E800042EA03128161026230BD000010B50248CF
:101E9000FEF70EFC10BD00003401002000BFFEE77D
:101EA00002480068C0F30220704700000CED00E01B
:101EB00010B5002804DB0A07130E054A135406E088
:101EC0000A07140E034A00F00F031B1FD45410BD61
:101ED00000E400E018ED00E002E008C8121F08C1AD
:101EE000002AFAD170477047002001E001C1121F9B
:101EF000002AFBD170470000014601EB8100024A35
:101F000002EBC000807D7047D0050020014601EB48
:101F10008100024A02EBC000007D7047D00500201E
:101F2000014601EB8100024A02EBC000407D704790
:101F3000D0050020FEF7EEFFFFF7EDFEFFF740FEB5
:101F4000FFF71AFEFFF790FE0648FFF78BFC00F044
:101F5000BBFBFEF74BF900F0DFFA01E000F074FD87
:101F6000FCE700005C01002070B504460D4605EB5F
:101F70008501044A02EBC10014222146FEF7D2F883
:101F800070BD0000D005002070B506460D46072440
:101F900016E0284600F03CF846FA04F000F0010094
:101FA00018B9284600F058F802E0284600F066F814
:101FB000284600F03FF8284600F02AF8601E44B298
:101FC000002CE6DA70BD10B50446204600F056F845
:101FD000204600F02FF8204600F03EF8204600F0A2
:101FE00017F810BD10B50446204600F023F820462F
:101FF00000F032F8204600F041F810BD10B504465C
:10200000204600F017F8204600F002F810BD00004E
:1020100000EB8011064A02EB01118988090400EBEC
:102020008012034B03EB02121268116100BF70476C
:10203000A401002000EB8011064A02EB01118988FF
:1020400000EB8012034B03EB02121268116100BF18
:1020500070470000A401002000EB8011064A02EB4B
:1020600001118989090400EB8012034B03EB021272
:102070009268116100BF7047A401002000EB80113D
:10208000064A02EB0111898900EB8012034B03EB36
:1020900002129268116100BF70470000A401002085
:1020A0002DE9F04106460F4614462046FFF78BFF08
:1020B00021467820FFF768FF2046FFF79FFF214663
:1020C0004020FFF761FF2046FFF798FF002508E05A
:1020D000705D2146FFF758FF2046FFF78FFF681C11
:1020E000C5B2BD42F4D32046FFF77CFFBDE8F081C6
:1020F00070B505460C462046FFF765FF214678205F
:10210000FFF742FF2046FFF779FF21460020FFF747
:102110003BFF2046FFF772FF21462846FFF734FFBA
:102120002046FFF76BFF2046FFF75CFF70BD000005
:10213000014800787047000028010020014601EBAB
:102140008100034A02EBC00090F8250070470000B0
:10215000D0050020014601EB8100024A02EBC000DD
:10216000006A7047D0050020014601EB8100024A59
:1021700002EBC00080687047D0050020014601EBEB
:102180008100024A02EBC00000697047D0050020C0
:10219000014601EB8100024A02EBC000C0687047B3
:1021A000D0050020014601EB8100024A02EBC0008D
:1021B000C0697047D00500200020014908707047B1
:1021C0002801002001460648027C002004E0054B5F
:1021D0001B5C0B54431CD8B29042F8DB70470000E4
:1021E000B40500202901002010B504461C22024934
:1021F0002046FDF797FF10BDB405002010B504463A
:102200000021204600F0FAF80021204600F014F9E1
:102210000021204600F0E8F80021204600F002F9F5
:1022200010BD2DE9F0418046FEF762FE04464046AF
:10223000FFF76CFE05464046FFF772FE0646404635
:10224000FFF75AFE28B12946404600F0E1F8BDE804
:10225000F081012D27D136BB2146404600F0E2F83F
:102260004046FFF76BFF01281DD14046FFF772FF84
:10227000271A4046FFF782FF874210D803214046C5
:1022800000F0BCF80021404600F0D6F8002140469E
:1022900000F0AAF82946404600F0BAF8D7E7002136
:1022A000404600F0C9F80DBB012E1FD14046FFF794
:1022B00079FF271A4046FFF76BFFB84204D8022186
:1022C000404600F09BF80CE04046FFF74DFFB84257
:1022D00007D82146404600F087F80121404600F02B
:1022E000ABF80021404600F09DF800BF4046FFF7E4
:1022F00025FF012814D14046FFF72CFF271A40463E
:10230000FFF73CFF87420BD90121404600F076F8E9
:102310000021404600F090F80021404600F064F8AB
:102320002946404600F074F800BF90E710B500243D
:1023300007E0204600F08AF82046FFF772FF601C95
:10234000C4B2042CF5DB10BD70B505460C46214621
:102350002846FFF709FEA87930B9A9882868FEF752
:10236000B9FD08B901260BE0A879012807D1A98891
:102370002868FEF7AFFD012801D1012600E0002604
:10238000002104EB8400174A02EBC000817504EBC6
:102390008400114601EBC000067504EB840001EBDC
:1023A000C0004675002104EB840002EBC00081618F
:1023B00004EB840002EBC000C16104EB840002EB7B
:1023C000C000016204EB8400114601EBC00080F8FC
:1023D0002460002104EB840002EBC00080F825108B
:1023E00070BD0000D005002000EB8002024B03EB23
:1023F000C202116270470000D005002000EB80028D
:10240000024B03EBC202917570470000D00500201B
:1024100000EB8002024B03EBC202517570470000D3
:10242000D005002000EB8002024B03EBC202D16119
:1024300070470000D005002000EB8002024B03EB48
:10244000C20282F825107047D00500202DE9F04126
:10245000044604EB84022F4B03EBC202918804EB89
:10246000840253F83200FEF735FD074604EB840082
:10247000284901EBC0008079B84201D1012500E074
:10248000002504EB8400234901EBC000007DA84235
:1024900036D0FEF72DFD064604EB84001D4901EB06
:1024A000C000806928B904EB840001EBC00086619C
:1024B00025E004EB8400174901EBC0008069301A65
:1024C00004EB8401134A02EBC1018968884216D3E8
:1024D00004EB8400114601EBC000017D04EB840095
:1024E00002EBC000417504EB8400114601EBC00013
:1024F0000575002104EB840002EBC000816106E059
:10250000002104EB8400034A02EBC0008161BDE8B6
:10251000F0810000D005002000B58BB0282101A873
:10252000FDF719FE0020069001200990002005907B
:1025300001900290039004900120089000200790E1
:102540000A9001A90548FDF763FF0448FEF7FBFA6E
:1025500002210248FDF7A2FE0BB000BD34010020AD
:1025600010B588B00446E068049020790690206990
:10257000059000208DF81C00E06810B920680290DA
:1025800001E02068039001AB02A90348A268FDF7AF
:102590009AFE08B010BD00003401002010B50446BA
:1025A00004EB8411044A02EB011101F110004FF415
:1025B0008061FDF7D0FD10BDA401002010B50446D8
:1025C0002146AE20FFF794FD21460020FFF790FD45
:1025D00021461020FFF78CFD21464020FFF788FDA3
:1025E00021468120FFF784FD2146CF20FFF780FDA3
:1025F0002146A120FFF77CFD2146C820FFF778FD8A
:102600002146A620FFF774FD2146A820FFF770FDA4
:1026100021463F20FFF76CFD2146D320FFF768FDE0
:1026200021460020FFF764FD2146D520FFF760FD1D
:1026300021468020FFF75CFD2146D920FFF758FD99
:102640002146F120FFF754FD2146DA20FFF750FD27
:1026500021461220FFF74CFD2146DB20FFF748FD05
:1026600021464020FFF744FD21462020FFF740FD92
:1026700021460220FFF73CFD21468D20FFF738FD63
:1026800021461420FFF734FD2146A420FFF730FD3A
:102690002146A620FFF72CFD2146AF20FFF728FD9D
:1026A00010BD000070B505460C4604EB84100549CA
:1026B00001EB001095E84E004EC02046FFF77EFF6C
:1026C00070BD0000A40100201FB5084800900290D2
:1026D0008015ADF804004000ADF80C0000216846FC
:1026E000FFF7E0FF0020FFF759FF1FBD000C01407E
:1026F00070B5054600241BE004F1B001C8B22946BC
:10270000FFF7F6FC29460020FFF7F2FC29461020CF
:10271000FFF7EEFC05EB8511074A02EB01111031C2
:1027200001EBC4102A468021FFF7BAFC601CC4B23A
:10273000082CE1DB70BD0000A40100202DE9FF4F53
:1027400083B090469946DDE911AB109E039F0025AA
:102750003FE018F8050004090A2C02DA04F1300001
:1027600001E004F13700C0B202903346CDE900AB7E
:102770003846029A049900F031F807EB660087B2F8
:1027800018F8050000F00F040A2C02DA04F13000FA
:1027900001E004F13700C0B202903346CDE900AB4E
:1027A0003846029A049900F019F807EB660087B2E0
:1027B000A9F10100A8420ADD33462022CDE900AB91
:1027C0003846049900F00AF807EB660087B2681CE7
:1027D000C5B24D45BDDB07B0BDE8F08F2DE9FF4F19
:1027E00083B0119C03F007060EB1012600E000261D
:1027F00006EBE3064FEA630A06FB0AFC059EA6F118
:1028000020098FB20C2B01D1794D0AE0102B01D198
:10281000784D06E0182B01D1774D02E007B0BDE8F6
:10282000F08F0022DEE009FB0C26AE5D02964FF031
:102830000008D0E0029E06F0800686B3109E7EBBA4
:10284000C1F3CF0601F0070ACDF804A04FF0010B49
:10285000DDF804A00BFA0AFB1FFA8BFACDF800A0F2
:1028600004EB841ADFF894B10BEB0A1A0AF1100A90
:1028700000EBC61B1AF80BA0DDF800B04AEA0B0A01
:102880000AF0FF0B04EB841ADFF870E10EEB0A1A72
:102890000AF1100A00EBC61E0AF80EB08CE02DE01B
:1028A000FFE7C1F3CF0601F0070ACDF804A04FF00F
:1028B000010BDDF804A00BFA0AFB1FFA8BFACDF826
:1028C00000A004EB841ADFF834B10BEB0A1A0AF10A
:1028D000100A00EBC61B1AF80BA0DDF800B02AEABC
:1028E0000B0A04EB841BDFF814E10EEB0B1B0BF15E
:1028F000100B00EBC61E0BF80EA05DE0109E66BB31
:10290000C1F3CF0601F0070ACDF804A04FF0010B88
:10291000DDF804A00BFA0AFB1FFA8BFACDF800A031
:1029200004EB841ADFF8D4B00BEB0A1A0AF1100A90
:1029300000EBC61B1AF80BA0DDF800B02AEA0B0A60
:1029400004EB841BDFF8B4E00EEB0B1B0BF1100B58
:1029500000EBC61E0BF80EA02EE0C1F3CF0601F06F
:10296000070ACDF804A04FF0010BDDF804A00BFA24
:102970000AFB1FFA8BFACDF800A004EB841ADFF8EB
:102980007CB00BEB0A1A0AF1100A00EBC61B1AF80E
:102990000BA0DDF800B04AEA0B0A0AF0FF0B04EBCB
:1029A000841ADFF858E00EEB0A1A0AF1100A00EB5D
:1029B000C61E0AF80EB000BF029E7606360E0296BC
:1029C000491CCE1B9E4202D13946401C07E008F14B
:1029D00001061FFA86F8B8F1080FFFF62BAF00BF0B
:1029E000561CB2B26245FFF41EAF00BF16E70000EE
:1029F000CE2B00084230000832360008A401002027
:102A00002DE9FC4306460F4614461D46DDE90989BB
:102A100012E0CDE9008922782B4639463046FFF78F
:102A2000DDFE06EB650086B2C5F18000B04202DA39
:102A30000026781987B2641C2078202802DB2078D1
:102A40007E28E6DDBDE8FC832DE9F0418CB0FFF780
:102A50006DFC0020FFF750FA05460120FFF74CFA05
:102A600006460220FFF748FA80460320FFF744FAA3
:102A70000746012D05D14148FFF772FD0020FFF701
:102A8000BDFB012E05D13E48FFF76AFD0120FFF78F
:102A9000B5FB002000900C233AA2014601900620CD
:102AA000FFF7AEFF002000900C2337A219460190DB
:102AB0000620FFF7A5FF002000900C2334A224215C
:102AC00001900620FFF79CFF002000900C2332A20B
:102AD000182101900620FFF793FFFFF729FB04461A
:102AE000002C44D005A8FFF77FFB03A8FFF76AFB83
:102AF000FFF762FB0898002838D1294906988842D8
:102B00000ED1079804280BD100200C22CDE900201B
:102B100002900998C3B203AA0C211E20FFF70EFEF3
:102B200040F25551059888420DD1079858B90020B8
:102B30000C22CDE9002002900998C3B203AA2421F7
:102B40001E20FFF7FBFD40F26661059888420DD11B
:102B5000079858B900200C22CDE90020029009986E
:102B6000C3B203AA18211E20FFF7E8FD00BF002012
:102B7000FFF7BEFD0CB0BDE8F081000000010020B1
:102B8000EC00002052783A0054696D3A00000000D1
:102B90005472693A000000005265713A000000006A
:102BA0000FAB890702030405060708090A0B0C0D81
:102BB0000E0F1010010200000000000000000102D2
:102BC00003040607080900000000010203040000D6
:102BD00000000000000000000000000000003F4076
:102BE0000000000000000000300040003000400005
:102BF000000009000BC03D000BC03D00090018C0DB
:102C000024407FE0224031800000180024C01B00D7
:102C10000D803240018003801C4027401C8007400B
:102C200000401000600000000000000000000000F4
:102C3000000000001F802040402000004020204075
:102C40001F8000000000090006001F800600090028
:102C50000000040004003F80040004000000001095
:102C600000600000000000000000040004000400F8
:102C7000040004000000000000400000000000000C
:102C80000000002001C006003800400000001F8046
:102C90002040204020401F800000000010403FC026
:102CA00000400000000018C021402240244018408D
:102CB000000010802040244024401B8000000200BF
:102CC0000D0011003FC0014000003C802440244022
:102CD0002440238000001F8024402440344003808F
:102CE00000003000200027C03800200000001B80BA
:102CF0002440244024401B8000001C0022C02240AD
:102D000022401F800000000000000840000000007A
:102D1000000000000000046000000000000000004F
:102D200004000A0011002080404009000900090049
:102D300009000900000000004040208011000A0046
:102D400004001800200023402400180000001F8009
:102D50002040274029401F400000004007C03900A4
:102D60000F0001C0004020403FC0244024401B8091
:102D700000001F8020402040204030800000204084
:102D80003FC0204020401F80000020403FC0244022
:102D90002E4030C0000020403FC024402E003000B4
:102DA00000000F00108020402240338002002040AD
:102DB0003FC0040004003FC02040204020403FC0EE
:102DC0002040204000000060202020203FC0200044
:102DD000200020403FC024400B0030C02040204055
:102DE0003FC020400040004000C03FC03C0003C046
:102DF0003C003FC0000020403FC00C4023003FC0CB
:102E000020001F802040204020401F8000002040E4
:102E10003FC024402400180000001F8021402140B2
:102E200020E01FA0000020403FC02440260019C021
:102E3000004018C02440244022403180000030006F
:102E400020403FC020403000000020003F80004074
:102E500000403F80200020003E0001C007003800F5
:102E60002000380007C03C0007C0380000002040A8
:102E700039C0060039C0204000002000384007C09B
:102E8000384020000000304021C02640384020C09B
:102E90000000000000007FE0402040200000000013
:102EA00070000C0003800040000000004020402023
:102EB0007FE0000000000000200040002000000033
:102EC00000000010001000100010001000100000A2
:102ED00000004000000000000000000002800540EB
:102EE000054003C0004020003FC004400440038070
:102EF0000000000003800440044006400000000081
:102F00000380044024403FC000400000038005408F
:102F1000054003400000000004401FC0244024403E
:102F20002000000002E0055005500650042020401B
:102F30003FC00440040003C000400000044027C01C
:102F400000400000000000100010041027E0000006
:102F5000000020403FC00140070004C00440204062
:102F600020403FC000400040000007C0040007C0F0
:102F7000040003C00000044007C00440040003C074
:102F8000004000000380044004400380000004105F
:102F900007F0045004400380000000000380044058
:102FA000045007F00010044007C002400400040071
:102FB0000000000006400540054004C0000000007D
:102FC00004001F800440004000000400078000400F
:102FD000044007C000400400070004C00180060050
:102FE0000400060001C0070001C006000000044004
:102FF00006C0010006C0044000000410071004E0F1
:103000000180060004000000044005C006400440A2
:1030100000000000000004007BE0402000000000F1
:1030200000000000FFF000000000000040207BE0F6
:10303000040000000000400080004000200020004C
:103040004000000000000000000000000000000040
:1030500000000000000000001FCC000C0000000079
:103060000000000008003000600008003000600030
:103070000000022003FC1E20022003FC1E20022070
:10308000000000000E1811043FFF10840C780000AF
:1030900000000F0010840F3800C0077818840078F3
:1030A000000000780F8410C411240E9800E40084FE
:1030B0000008080068007000000000000000000028
:1030C000000000000000000007E018182004400283
:1030D0000000000040022004181807E00000000073
:1030E00000000240024001800FF0018002400240D7
:1030F00000000080008000800FF8008000800080C9
:1031000000000001000D000E0000000000000000A3
:1031100000000000008000800080008000800080AF
:1031200000800000000C000C000000000000000007
:103130000000000000060018006001800600180072
:103140002000000007F0080810041004080807F029
:1031500000000000080408041FFC00040004000034
:10316000000000000E0C10141024104411840E0CEA
:10317000000000000C1810041104110412880C70D7
:103180000000000000E00320042408241FFC0024A9
:10319000000000001F9810841104110410881070A2
:1031A0000000000007F0088811041104188800705E
:1031B000000000001C00100010FC13001C00100098
:1031C000000000000E3811441084108411440E38A1
:1031D000000000000700088C10441044088807F025
:1031E0000000000000000000030C030C00000000C1
:1031F00000000000000000010106000000000000C7
:1032000000000000008001400220041008081004A3
:1032100000000220022002200220022002200220C0
:103220000000000010040808041002200140008083
:10323000000000000E001200100C106C10800F0037
:10324000000003E00C1813E4142417C4082807D066
:1032500000000004003C03C41C40074000E4001CC4
:10326000000410041FFC1104110411040E880070E6
:10327000000003E00C1810041004100410081C10C7
:10328000000010041FFC100410041004080807F0CC
:10329000000010041FFC1104110417C410040818C6
:1032A000000010041FFC1104110017C010000800DA
:1032B000000003E00C181004100410441C780040B7
:1032C000000010041FFC10840080008010841FFC8C
:1032D00010040000100410041FFC1004100400006F
:1032E000000000030001100110011FFE100010007B
:1032F000000010041FFC110403801464181C100447
:10330000000010041FFC1004000400040004000C62
:10331000000010041FFC1F0000FC1F001FFC100415
:10332000000010041FFC0C04030000E010181FFC38
:10333000100007F00808100410041004080807F033
:10334000000010041FFC10841080108010800F00FB
:10335000000007F0081810241024101C080A07F2B7
:10336000000010041FFC1104110011C011300E0CDC
:10337000000400000E1C11041084108410441C383A
:1033800000001800100010041FFC100410001800AA
:10339000000010001FF810040004000410041FF8BF
:1033A000100010001E0011E0001C007013801C00B3
:1033B00010001FC0103C00E01F0000E0103C1FC0C8
:1033C00000001004180C163401C001C01634180C8B
:1033D000100410001C00130400FC13041C00100057
:1033E00000000804101C1064108413041C0410183E
:1033F00000000000000000007FFE4002400240028A
:103400000000000030000C0003800060001C00037E
:10341000000000004002400240027FFE0000000069
:10342000000000000000200040004000400020009C
:103430000000000100010001000100010001000185
:1034400000010000400040002000000000000000DB
:10345000000000000098012401440144014400FCE4
:10346000000410001FFC00880104010400880070A3
:1034700000000000007000880104010401040088BD
:1034800000000000007000880104010411081FFC06
:103490000004000000F8014401440144014400C854
:1034A00000000000010401040FFC110411041100CC
:1034B0001800000000D601290129012901C90106CF
:1034C000000010041FFC008401000100010400FC46
:1034D000000400000104190419FC000400040000A9
:1034E00000000000000300010101190119FE0000A5
:1034F000000010041FFC0024004001B4010C010472
:1035000000000000100410041FFC00040004000070
:103510000000010401FC0104010001FC01040100A0
:1035200000FC010401FC008401000100010400FC16
:103530000004000000F8010401040104010400F883
:103540000000010101FF00850104010400880070F2
:10355000000000000070008801040104010501FF63
:1035600000010104010401FC008401040100018048
:103570000000000000CC0124012401240124019852
:10358000000000000100010007F801040104000030
:103590000000010001F8000400040004010801FC1F
:1035A0000004010001800170000C00100160018026
:1035B000010001F0010C003001C00030010C01F0ED
:1035C000010000000104018C00740170018C0104F1
:1035D0000000010101810171000E001801600180ED
:1035E000010000000184010C013401440184010C3C
:1035F0000000000000000000000001003EFC40024E
:1036000040020000000000000000FFFF000000007A
:1036100000000000400240023EFC010000000000EB
:10362000000000006000800080004000400020009A
:10363000200000000000000000000000000000006A
:10364000000000000000000000000000000000007A
:10365000000000000000000000000000000000006A
:1036600000000000000F80380FFE380F8038000087
:10367000000000000000000000000000000000004A
:103680000100000600000C000038000031000006B8
:1036900000000C00003800003000000000000000B6
:1036A000000061800067F807F98000618000618098
:1036B0000061800061800067F807F9800061800088
:1036C000000000000000000001C0E003E0F0063050
:1036D000080418081FFFFE040E080787F00381E0A6
:1036E00000000000000001F000060C0004040806C1
:1036F0000C7001F9C0000E00003BE000EC18070858
:1037000008040C180003E00000000001E00007F0CE
:1037100003F818041C0804170807E1D003C0E000F0
:1037200023B0003C0800200800001000000000004A
:10373000000100003100003200001C000000000009
:103740000000000000000000000000000000000079
:103750000000000000000000000000000000000069
:1037600000007F0001FFC00780F00C00181000046B
:103770002000020000000000002000021000040CE5
:1037800000180780F001FFC0007F0000000000006B
:1037900000000000000000000000000000004200E7
:1037A000006600006600003C0000180003FFC00037
:1037B0001800003C000066000066000042000000A7
:1037C00000000800000800000800000800000800D1
:1037D00001FFC00008000008000008000008000009
:1037E000080000000000000100003100003200006D
:1037F0001C000000000000000000000000000000AD
:1038000000000000000000000000080000080000A8
:103810000800000800000800000800000800000878
:103820000000080000080000000000000000000088
:1038300000003800003800003800000000000000E0
:103840000000000000000000000000000000000078
:103850000000000600001C000070000180000E0047
:1038600000380000C0000700001C0000300000000D
:103870000000000000007F8001FFE0038070060070
:103880001804000804000806001803807001FFE017
:10389000007F80000000000000000000010008011F
:1038A000000801000803FFF807FFF8000008000007
:1038B0000800000800000000000000000001C038FF
:1038C00002C05804009804011804021804041806E1
:1038D0001C1803F81801E0F80000000000000000C8
:1038E0000001C0E003C0F004000804080804080850
:1038F00006180803F41801E7F00001E000000000DA
:103900000000000000000300000D00001100006135
:103910000000810803010807FFF80FFFF800010805
:103920000001080000000000000000E007FCD006D5
:103930000808061008061008061008061838060FB2
:10394000F00607C0000000000000000000003F80FB
:1039500001FFE00384300208180410080410080472
:103960001008071810030FF00007C0000000000047
:103970000000000003C0000700000600000600F879
:103980000607F806180006E0000700000600000021
:10399000000000000001E1E003F7F0063410041815
:1039A00008041808040C08040C0806161803F3F0A1
:1039B00001C1E000000000000000F80003FC30033B
:1039C000063804020804020804020804041003086C
:1039D000F001FFC0007F00000000000000000000B8
:1039E0000000000000000000000070380070380087
:1039F000703800000000000000000000000000001F
:103A00000000000000000000000000000000301A6C
:103A100000301C000000000000000000000000005A
:103A20000000000000000000000800001400002258
:103A300000004100008080010040020020040010CE
:103A40000800080000000000000021000021000024
:103A500021000021000021000021000021000021A0
:103A60000000210000210000000000000000000014
:103A700008000804001002002001004000808000BF
:103A800041000022000014000008000000000000B7
:103A90000003C00004C000040000080038080F380C
:103AA0000808380810000C300007E00003C00000D0
:103AB0000000000000003F8000FFE0038070020F64
:103AC0001006708804C088048308047F8802C090B0
:103AD00003012000FE400000080000180001F8006B
:103AE0003E0801C20007020007E20000FE00001FBE
:103AF000C80001F800003800000804000807FFF8BB
:103B000007FFF80408080408080408080408080661
:103B1000180803F41801E7F00001E00000000000BD
:103B200000003F8001FFE0038070020018040008DD
:103B30000400080400080400100600200780C000EC
:103B4000000004000807FFF807FFF804000804005D
:103B50000804000804001802001003807001FFE050
:103B6000007F8000000004000807FFF807FFF8044A
:103B70000808040808040808040808043E080400AB
:103B80000806001801006000000004000807FFF8A4
:103B900007FFF804080804080004080004080004EB
:103BA0003E0006000006000001800000000000004A
:103BB00000003F8001FFE003807006001804000849
:103BC0000402080402080203F00783F00002000068
:103BD000020004000807FFF807FFF80408080008BF
:103BE0000000080000080000080004080807FFF8AB
:103BF00007FFF804000800000000000004000804AB
:103C0000000804000807FFF807FFF8040008040094
:103C1000080400080000000000000000000000068A
:103C20000000070000010400010400010400030774
:103C3000FFFE07FFFC040000040000040000040075
:103C40000807FFF807FFF8040C08001800003E0002
:103C500004C7800503C80600F804003804001800F3
:103C6000000804000807FFF807FFF8040008000038
:103C70000800000800000800000800000800001804
:103C800000006000000004000807FFF80780080734
:103C9000FC00007FC00003F80007C0007800078028
:103CA0000807FFF807FFF804000804000807FFF8FA
:103CB00007000803C00000E000003800001E0000FC
:103CC00007000001C00400F007FFF8040000000036
:103CD00000007F8001FFE0038070060018040008E8
:103CE00004000806001803003001FFE0007F800098
:103CF000000004000807FFF807FFF80404080404A4
:103D000000040400040400040400060C0003F8008E
:103D100001F000000000000000007F8001FFE003D0
:103D200080700600880400880400C806003C030078
:103D30003E01FFE6007F8400000004000807FFF852
:103D400007FFF8040808040800040C00040F00042E
:103D50000BC00610F003F03801E008000008000076
:103D60000001E0F803F030063010041808041808C9
:103D7000040C08040C080206180207F00781E00092
:103D800000000180000600000400000400000400A0
:103D90000807FFF807FFF80400080400000400000B
:103DA00006000001800004000007FFE007FFF004A8
:103DB00000180000080000080000080000080000CB
:103DC0000804001007FFE0040000040000060000E3
:103DD00007E00007FE00041FE00001F800003800C3
:103DE00001E0043E0007C0000600000400000400DB
:103DF0000007E00007FFC0041FF80007C007F80035
:103E000007FF80043FF80007C004F8000700000423
:103E1000000000000004000806001807C07805F143
:103E2000C8003E00001F800463E80780F806001801
:103E300004000800000004000006000007800007DE
:103E4000E008047C08001FF80007F800180804E0E8
:103E50000807000006000004000000000001000840
:103E60000600380400F80403E8040F08047C080581
:103E7000F00807C0080700180400600000000000F8
:103E8000000000000000000000000000003FFFFEF6
:103E90002000022000022000022000022000020078
:103EA000000000000000000008000007000000C043
:103EB000000038000006000001C000003000000EC5
:103EC00000000100000000000000000020000220AF
:103ED00000022000022000022000023FFFFE00003E
:103EE00000000000000000000000000000000000D2
:103EF000000000080000100000300000200000302A
:103F00000000100000080000000000000000000099
:103F1000010000010000010000010000010000019B
:103F2000000001000001000001000001000001008C
:103F30000001000000000000000000200000200040
:103F40000010000010000000000000000000000051
:103F50000000000000000000000000F00019F80060
:103F60001B18002208002608002408002410003F27
:103F7000F8001FF80000080000180000000400000E
:103F800007FFF80FFFF000181800100800200800C5
:103F90002008003018001FF0000FC00000000000D3
:103FA000000007C0001FF0001830002008002008A3
:103FB000002008003C08001C100000600000000009
:103FC00000000000000007C0001FF00038180020AB
:103FD0000800200800200804101007FFF80FFFF069
:103FE0000000100000000000000000000007C000FA
:103FF0001FF00012300022180022080022080032B0
:1040000008001E10000E200000000000000020002C
:1040100000200800200801FFF803FFF8062008042C
:104020002008042008072000030000000000000012
:104030000000000E000E6E001FF30031B10020B131
:104040000020B1003191001F13002E1E00200E0031
:10405000300000000004000807FFF80FFFF8001010
:1040600008002000002000002008003FF8001FF892
:104070000000080000000000000000000020080010
:104080002008002008063FF8063FF800000800005E
:104090000800000800000000000000000000000010
:1040A000000003000003002001002001002003069F
:1040B0003FFE063FFC000000000000000000000082
:1040C0000004000807FFF80FFFF800018800030054
:1040D000002FC00038F80020380020080000080039
:1040E00000000000000000000400080400080400B4
:1040F0000807FFF80FFFF80000080000080000089C
:10410000000000000000002008003FF8003FF80019
:104110001008002000003FF8003FF80010080020C1
:1041200000003FF8003FF8000008000000002008F1
:10413000003FF8003FF800100800100000200000C9
:104140002008003FF8001FF80000080000000000F1
:10415000000007C0000FF0001830003008002008F1
:10416000002008003008001830000FF00007C000E1
:104170000000000000002001003FFF003FFF001092
:1041800011002009002008002008003038001FF02E
:10419000000FC00000000000000007C0001FF0007A
:1041A0003818002008002008002009001011001F06
:1041B000FF003FFF00000100000000200800200871
:1041C000002008003FF8003FF80008080010080031
:1041D0002008002000003000003000000000000037
:1041E00000000000000C78001E18003308002308AF
:1041F0000021080021880021980030F0003860007C
:10420000000000000000200000200000200000FF4F
:10421000F003FFF80020080020080020080000300C
:10422000000000000000000000002000003FF0003F
:104230007FF8000018000008000008002010003F70
:10424000F8007FF0000010000000000000002000D7
:10425000003000003C00003F800023F000007800A8
:104260000070002380003C0000300000200000208F
:1042700000003C00003FE00023F80000E0002700C1
:10428000003E00003FE00021F80001E0003E000099
:104290002000000000002008002008003838003E00
:1042A000680027800003C8002CF800383800201868
:1042B0000020080000000000000020000030030083
:1042C0003C01003F830023EC000070002380003C91
:1042D000000020000020000000000000000000009E
:1042E0000038080020380020F80023E8002F88005C
:1042F0003E08003808002018000070000000000090
:1043000000000000000000000000000000000800A5
:104310000014001FF7FC300006200002000000001F
:10432000000000000000000000000000000000008D
:1043300000000000FFFFFF00000000000000000080
:10434000000000000000000000000000200002301B
:1043500000061FF7FC001400000800000000000029
:104360000000000000000000000000000018000035
:104370006000004000004000002000001000000825
:1043800000000400000400000C0000100000000009
:10439000B043000800000020340100009001000834
:1043A00000440008340100203C090000E81E000819
:1043B000413210420143127AE5556648773556344A
:1043C000120422132A2008410A1101140A110314AD
:1043D0000A11FF1411FCAB8907500911140A1103CB
:1043E000140A250F14235505691481CB770714325D
:1043F000025A89149A1B140B1066063CC100000077
:04000005080000ED02
:00000001FF
