:020000040800F2
:100000003009002001010008AD150008B5140008F2
:10001000A9150008330200084F1600080000000070
:10002000000000000000000000000000DD150008D6
:10003000E102000800000000B1150008DF1500080B
:100040001B0100081B0100081B0100081B01000820
:100050001B0100081B0100081B0100081B01000810
:100060001B0100081B0100081B0100081B01000800
:100070001B0100081B0100081B0100081B010008F0
:100080001B0100081B0100081B0100081B010008E0
:100090001B0100081B0100081B0100081B010008D0
:1000A0001B0100081B0100081B0100081B010008C0
:1000B0001B0100081B0100081B0100081B010008B0
:1000C0001B0100081B0100081B0100081B010008A0
:1000D0001B0100081B0100081B0100081B01000890
:1000E0001B0100081B0100081B010008DFF80CD0F1
:1000F00000F07EF800480047911B000830090020FE
:100100000648804706480047FEE7FEE7FEE7FEE7B1
:10011000FEE7FEE7FEE7FEE7FEE7FEE74D16000816
:10012000ED000008202A04DB203A21FA02F0002129
:10013000704721FA02F3D040C2F1200291400843F7
:100140001946704740EA01039B0703D009E008C93C
:10015000121F08C0042AFAD203E011F8013B00F88C
:10016000013B521EF9D27047D2B201E000F8012BD8
:10017000491EFBD270470022F6E710B513460A4627
:1001800004461946FFF7F0FF204610BD2DE9F05F49
:100190000546002092469B468846064681464024F6
:1001A0001BE02846414647462246FFF7BBFF534621
:1001B0005A46C01A914110D311461846224600F003
:1001C00029F82D1A67EB01084F462246012000212D
:1001D00000F020F817EB00094E41201EA4F10104A5
:1001E000DFDC484631462A464346BDE8F09F000022
:1001F000064C074D06E0E06840F0010394E8070074
:1002000098471034AC42F6D3FFF774FF843F0008E0
:10021000A43F0008202A04DB203A00FA02F1002063
:1002200070479140C2F1200320FA03F31943904034
:10023000704700BFFEE7000000B585B000208DF8D4
:1002400006002548009014200290244803900A20BC
:1002500004900220ADF804000121684601F07EFE02
:1002600000208DF806001C480090142002901B48C6
:1002700003900A2004904FF40060ADF804000021C0
:10028000684601F06BFE01208DF8060012480090D0
:1002900014200290114803900A2004904FF48050DB
:1002A000ADF804000221684601F058FE01208DF8E7
:1002B0000600094800901420029008480390C820C6
:1002C00004904FF40050ADF804000321684601F09B
:1002D00045FE05B000BD0000000C0140A0860100F5
:1002E000704772B600BFFEE7F0B504460D461E46E5
:1002F00094F8207020688368A86800B900E000BF07
:10030000012F01D0022F7DD103F0806030B903F0BE
:10031000006018B903F0805000287ED0C3F301615B
:10032000012088403060A86860B9B5F800C0E8686E
:1003300040EA4C5C206800F5C07000EB0110C0F88A
:1003400000C00FE0D5E901C040EACC00D5F80CC0F0
:1003500040EA0C00D4F800C00CF5C07C0CEB011C8A
:10036000CCF80000D5F810C0206800F5C07000EB94
:100370000110C0F804C0287D01280ED1206800F5C6
:10038000C07000EB0110406840F4807C206800F5EC
:10039000C07000EB0110C0F804C0D079000692F8DC
:1003A00006C040EA0C4092F805C040EA0C2092F8E2
:1003B00004C040EA0C00D4F800C00CF5C07C0CEB83
:1003C000011CCCF80C00D078000692F802C040EA7C
:1003D0000C4092F801C040EA0C2092F800C040EABC
:1003E0000C00D4F800C00CF5C07C0CEB011CCCF860
:1003F0000800206800F5C07000EB0110006840F0B4
:10040000010C01E00FE008E0206800F5C07000EB8F
:100410000110C0F800C00020F0BD606A40F4001078
:1004200060620120F8E7606A40F480206062012089
:10043000F2E7F0B504460A46216894F82050012DF1
:1004400001D0022D74D1D1F8000240F00100C1F8B2
:100450000002107D00F01F06012000FA06F3D1F81B
:100460001C029843C1F81C02D069C8B9D1F80C022B
:100470009843C1F80C02908880B2968940EA0646FB
:1004800001F51070576940F83760108880B21689FE
:1004900040EA064601F51070576900EBC700466058
:1004A000D069012819D1D1F80C021843C1F80C0207
:1004B000908880B2168840EA064601F510705769A8
:1004C00040F83760908980B2168940EA064601F507
:1004D0001070576900EBC7004660906928B9D1F8E1
:1004E00004029843C1F8040204E0D1F8040218435E
:1004F000C1F80402106928B9D1F814029843C1F870
:10050000140204E0D1F814021843C1F81402106A6E
:10051000012804D1D1F81C021843C1F81C02D1F8FB
:10052000000220F00100C1F800020020F0BDFFE74A
:10053000606A40F4802060620120F7E710B502464F
:10054000002092F82030012B01D0022B09D121B9D3
:100550001468E46804F0030003E01468246904F0FC
:10056000030010BD70B5044694F82050012D01D051
:10057000022D7DD151B92068C06800F0030080B918
:10058000606A40F400106062012070BD206800695C
:1005900000F0030028B9606A40F400106062012096
:1005A000F3E7206800F5D87000EB0110006800F058
:1005B00004009060906840B9206800F5D87000EBA6
:1005C00001100068400D106007E0206800F5D87049
:1005D00000EB01100068C0085060206800F5D8707A
:1005E00000EB0110006800F00200D060206800F508
:1005F000D87000EB0110406800F00F00082802D30B
:100600000820106108E0206800F5D87000EB0110A8
:10061000406800F00F001061206800F5D87000EB12
:100620000110406800F47F40000A9061206800F5E6
:10063000D87000EB01104068000C5061206800F594
:10064000D87000EB011080681870206800F5D87031
:1006500000EB0110806800F47F40000A58702068A9
:1006600000F5D87000EB0110806800F47F0000E016
:100670003CE0000C9870206800F5D87000EB011089
:100680008068000ED870206800F5D87000EB01106B
:10069000C0681871206800F5D87000EB0110C068C0
:1006A00000F47F40000A5871206800F5D87000EB14
:1006B0000110C06800F47F00000C9871206800F5FC
:1006C000D87000EB0110C068000ED87131B92068F5
:1006D000C06840F020002668F06005E020680069EE
:1006E00040F020002668306100204EE7606A40F448
:1006F00080206062012048E770B504460CB90120F3
:1007000070BD94F8200010B9204600F0AFF82068C2
:10071000006840F001002168086000F0B9FA054661
:100720000DE000F0B5FA401B0A2808D9606A40F4D1
:1007300000306062052084F820000120E0E7206896
:10074000406800F001000028EBD02068006820F02D
:1007500002002168086000F09BFA05460DE000F0F9
:1007600097FA401B0A2808D9606A40F4003060629A
:10077000052084F820000120C2E72068406800F0CE
:1007800002000028EBD1207E012806D120680068F5
:1007900040F080002168086005E02068006820F0D3
:1007A000800021680860607E012806D1206800680A
:1007B00040F040002168086005E02068006820F0F3
:1007C000400021680860A07E012806D120680068EA
:1007D00040F020002168086005E02068006820F0F3
:1007E000200021680860E07E012806D120680068AA
:1007F00020F010002168086005E02068006840F0E3
:10080000100021680860207F012806D12068006858
:1008100040F008002168086005E02068006820F0CA
:10082000080021680860607F012806D12068006800
:1008300040F004002168086005E02068006820F0AE
:10084000040021680860D4E90201084321690843D3
:10085000616908436168491E08432168C861002036
:100860006062012084F82000002049E710B586B0BE
:100870000446002002900390049005901A492068D5
:1008800088422ED100BF1948C06940F00070174956
:10089000C8610846C06900F00070019000BF00BF49
:1008A00000BF0846806940F00400886108468069FE
:1008B00000F00400019000BF00BFC81402900020A7
:1008C0000390049002A90A4800F044F84FF48050C5
:1008D0000290022003900320059002A9044800F032
:1008E00039F806B010BD000000640040001002405E
:1008F0000008014070B5044694F82000012822D178
:10090000022084F820002068006820F0010021689F
:10091000086000F0BDF905460DE000F0B9F9401B94
:100920000A2808D9606A40F400306062052084F823
:100930002000012070BD2068406800F00100002800
:10094000EBD16062F6E7606A40F40020606201204B
:10095000F0E700002DE9F8470346002294466EE1D7
:100960004FF0010808FA02F4D1F8008008EA040008
:10097000A0427DD1DFF8DCA2D1F80480A8EB0A09FF
:10098000D0453AD014DCB8F1030F50D009DCB8F1EF
:10099000000F31D0B8F1010F1CD0B8F1020F49D1CE
:1009A00020E0B8F1110F18D0B8F1120F42D11EE0BB
:1009B000B9F5881F25D006DCB9F5803F20D0B9F500
:1009C000801F37D11AE0B9F5001F18D0B9F5041F00
:1009D00030D117E0D1F80CC02DE0D1F80C8008F12F
:1009E000040C28E0D1F80C8008F1080C23E0D1F8C1
:1009F0000C8008F10C0C1EE000BF00BF00BF00BF60
:100A000000BF00BFD1F80880B8F1000F02D14FF04D
:100A1000040C0BE0D1F80880B8F1010F03D14FF0BE
:100A2000080C1C6102E04FF0080C5C6103E04FF021
:100A3000000C00E000BF00BFFF2801D8984601E08D
:100A400003F104084646FF2802D84FEA820803E073
:100A5000A2F108084FEA88084746D6F800804FF010
:100A60000F0909FA07F928EA09080CFA07F900E062
:100A700088E048EA0908C6F80080D1F8048008F048
:100A80008058B8F1805F7DD100BFDFF8CC81D8F805
:100A9000188048F00108DFF8C091C9F81880C846EE
:100AA000D8F8188008F00108CDF8008000BF00BF1A
:100AB0004FEAB9384FEA920958F829504FEA82783C
:100AC0004FEA18794FF00F0808FA09F825EA0805E7
:100AD000DFF88881434502D14FF0000816E0DFF8C7
:100AE0008081434502D14FF001080FE0DFF87481A7
:100AF000434502D14FF0020808E0DFF86C8143451E
:100B000002D14FF0030801E04FF004084FEA827968
:100B10004FEA197908FA09F848EA0505DFF84C8127
:100B20004FEA920948F82950D1F8048008F4801857
:100B3000B8F5801F0AD1DFF83881D8F8008048EA7C
:100B40000008DFF82C91C9F8008009E0DFF8208167
:100B5000D8F8008028EA0008DFF81491C9F800806E
:100B6000D1F8048008F40018B8F5001F10D1DFF8A0
:100B7000008108F10408D8F8008048EA0008DFF88E
:100B8000F09000E05AE009F10409C9F800800DE096
:100B9000DFF8DC8008F10408D8F8008028EA0008B3
:100BA000DFF8CC9009F10409C9F80080D1F804807D
:100BB00008F40038B8F5003F0ED1DFF8B480A8F192
:100BC0000408D8F8008048EA0008DFF8A490A9F1EA
:100BD0000409C9F800800DE0DFF89480A8F104084A
:100BE000D8F8008028EA0008DFF88490A9F1040909
:100BF000C9F80080D1F8048008F48038B8F5803F47
:100C00000ED1DFF86C80A8F10808D8F8008048EA17
:100C10000008DFF85C90A9F10809C9F800800DE030
:100C2000DFF84C80A8F10808D8F8008028EA00080E
:100C3000DFF83C90A9F10809C9F80080521CD1F8EE
:100C4000008028FA02F8B8F1000F7FF489AEBDE801
:100C5000F887000000001110001002400008014059
:100C6000000C014000100140001401400800014048
:100C700008040140024693680B400BB1012000E0DC
:100C8000002070470AB1016101E00B040361704765
:100C90000148006870470000000000200348006819
:100CA00003490978084401490860704700000020A2
:100CB0000800002010B50848006840F01000064900
:100CC0000860032000F098F80F2000F007F800F00B
:100CD0002BF8002010BD00000020024070B5044633
:100CE0000E4800784FF47A71B1FBF0F00C490968B6
:100CF000B1FBF0F5284600F0C3FB08B1012070BD40
:100D0000102C07D200222146501E00F037F805486B
:100D1000046001E00120F2E70020F0E70800002075
:100D20000C0000200400002008B500BF11488069B5
:100D300040F001000F4988610846806900F0010019
:100D4000009000BF00BF00BF0846C06940F080505F
:100D5000C8610846C06900F08050009000BF00BF25
:100D600000BF0549486820F0E06040F0007048602E
:100D700000BF08BD00100240000001402DE9F05FF7
:100D800080460D461646002700F07CFC0746394693
:100D90002A46334601F00700C0F1070ABAF1040FF2
:100DA00002D94FF0040A01E0C0F1070AD14600F170
:100DB000040ABAF1070F02D24FF0000A01E0A0F1D5
:100DC000030AD4464FF0010A0AFA09FAAAF1010A05
:100DD0000AEA020A0AFA0CFA4FF0010B0BFA0CFBB2
:100DE000ABF1010B0BEA030B4AEA0B042146404628
:100DF00000F050FCBDE8F09F00BF00F00702064B7A
:100E000019684FF6FF031940044B0B4343EA0221D4
:100E1000014B196000BF70470CED00E00000FA05BF
:100E200070B504460D460CB9012070BD5A480068E3
:100E300000F00700A8420ED25748006820F00700D3
:100E40002843554908600846006800F00700A8429A
:100E500001D00120E9E7207800F0020002281DD12E
:100E6000207800F00400042805D14C48406840F484
:100E7000E0604A494860207800F00800082805D161
:100E80004648406840F460504449486043484068E0
:100E900020F0F000A168084340494860207800F045
:100EA000010078B36068012806D13C48006800F46E
:100EB000003090B90120B8E76068022806D13748B1
:100EC000006800F0007040B90120AEE733480068C8
:100ED00000F0020008B90120A7E73048406820F080
:100EE0000300616808432D494860FFF7D1FE0646BC
:100EF00009E0FFF7CDFE801B41F28831884202D91C
:100F0000032092E707E02548406800F00C00616884
:100F1000B0EB810FEDD12048006800F00700A84237
:100F20000ED91D48006820F0070028431A490860C0
:100F30000846006800F00700A84201D0012074E7CD
:100F4000207800F00400042807D11448406820F4F9
:100F5000E060E168084311494860207800F008002B
:100F6000082808D10D48406820F46050216940EA03
:100F7000C1000A49486000F019F808494968C1F3FE
:100F80000311074A515CC8400649086006480068DA
:100F9000FFF7A4FE002048E70020024000100240B6
:100FA000AA2700080C0000200400002070B50021D2
:100FB0000022002400230020134D696801F00C0575
:100FC000F5B1042D02D0082D19D101E00F4819E028
:100FD0000F4DC1F38346AB5D01F4803555B10A4D29
:100FE0006D68C5F340450B4E725D084D5D43B5FB22
:100FF000F2F402E0084D03FB05F4204602E000BFD6
:10100000024800BF00BF70BD0010024000127A000D
:1010100098270008A827000800093D00F8B50446F5
:101020000CB90120F8BD207800F00100002878D02C
:10103000F848406800F00C0004280CD0F5484068DF
:1010400000F00C00082811D1F248406800F480300C
:10105000B0F5803F0AD1EF48006800F40030002866
:101060005FD0606800285CD10120DBE700BF6068CA
:10107000B0F5803F06D1E748006840F48030E5498C
:10108000086028E0606858B9E248006820F48030C1
:10109000E04908600846006820F4802008601AE0F3
:1010A0006068B0F5A02F0BD1DA48006840F48020CA
:1010B000D84908600846006840F4803008600AE0BB
:1010C000D448006820F48030D2490860084600689F
:1010D00020F48020086000BF606888B1FFF7D8FD69
:1010E000054606E0FFF7D4FD401B642801D9032024
:1010F00098E7C848006800F400300028F2D010E0FB
:10110000FFF7C6FD054606E0FFF7C2FD401B642859
:1011100001D9032086E7BF48006800F400300028AA
:10112000F2D1207800F00200022857D1B948406877
:1011300000F00C0050B1B748406800F00C000828DF
:1011400018D1B448406800F4803098B9B1480068BC
:1011500000F0020020B12069012801D0012061E7E0
:10116000AC48006820F0F800616940EAC100A94974
:10117000086033E02069E8B10120A7490860FFF763
:1011800087FD054606E0FFF783FD401B022801D9D5
:10119000032047E79F48006800F002000028F2D0D3
:1011A0009C48006820F0F800616940EAC100994954
:1011B000086013E0002098490860FFF769FD0546C4
:1011C00006E0FFF765FD401B022801D9032029E74F
:1011D0009048006800F002000028F2D1207800F06A
:1011E000080008282DD1A069B8B101208B490860FA
:1011F000FFF74EFD054606E0FFF74AFD401B0228BB
:1012000001D903200EE78348406A00F0020000285D
:10121000F2D0012000F0CEF913E000207F490860F1
:10122000FFF736FD054606E0FFF732FD401B0228BA
:1012300001D90320F6E67748406A00F00200002852
:10124000F2D1207800F00400042873D100277148FF
:10125000C06900F0805070B900BF6E48C06940F0AE
:1012600080506C49C8610846C06900F08050009009
:1012700000BF00BF01276A48006800F48070B0B961
:101280006748006840F4807065490860FFF700FD1A
:10129000054606E0FFF7FCFC401B642801D903204B
:1012A000C0E65F48006800F480700028F2D000BFFC
:1012B000E068012806D15748006A40F0010055490E
:1012C000086227E0E06858B95248006A20F001003F
:1012D000504908620846006A20F00400086219E0DC
:1012E000E06805280BD14B48006A40F004004949EA
:1012F00008620846006A40F0010008620AE04548BA
:10130000006A20F00100434908620846006A20F0A4
:101310000400086200BFE068A0B1FFF7B9FC054611
:1013200009E0FFF7B5FC401B41F28831884202D941
:10133000032077E622E03748006A00F00200002828
:10134000EFD012E0FFF7A4FC054608E0FFF7A0FC91
:10135000401B41F28831884201D9032062E62D48C2
:10136000006A00F002000028F0D1012F05D12948C1
:10137000C06920F080502749C86100BFE069C8B348
:101380002448406800F00C00082860D0E06902287A
:1013900048D1002020490866FFF77AFC054606E0A0
:1013A000FFF776FC401B022801D903203AE61948D2
:1013B000006800F000700028F2D1206AB0F5803F8C
:1013C00007D11448406820F40030A168084311494F
:1013D0004860D4E9080108430E49496821F47411B2
:1013E00008430C49486001200B490866FFF750FC90
:1013F000054607E03DE0FFF74BFC401B022801D902
:1014000003200FE60348006800F000700028F2D0C7
:101410002FE00000001002400000424280044242DF
:1014200000700040002014490866FFF731FC0546B3
:1014300006E0FFF72DFC401B022801D90320F1E54F
:101440000E48006800F000700028F2D111E0E06959
:10145000012800D1E6E50948466806F48031206A93
:10146000814204D106F47011606A814201D00120EA
:10147000D8E50020D6E500000000424200100240FE
:1014800070B504462546681EB0F1807F01D3012067
:101490000FE0681E4FF0E02148610F214FF0FF3050
:1014A00000F0F8F800204FF0E02188610720086183
:1014B000002070BD00BFFEE710B50F480F4908605F
:1014C0000620486000210D4881604FF08071C160A6
:1014D0004FF4E02101614FF40011416100210176D8
:1014E00041768176C17601774177FFF705F908B13A
:1014F000FEF7F7FE10BD0000006400402C00002045
:1015000000B585B00020019002900390049000BFC8
:101510002348806940F0200021498861084680699D
:1015200000F02000009000BF00BF00BF08468069A7
:1015300040F0080088610846806900F008000090CB
:1015400000BF00BF00BF0846806940F0040088610A
:101550000846806900F00400009000BF00BF002230
:101560004FF440710F48FFF78DFB40F602000190E9
:10157000002002900120039001A90A48FFF7EAF930
:101580004FF440700190112002900020039002203F
:10159000049001A90348FFF7DDF905B000BD000084
:1015A00000100240000C014000BFFEE700BFFEE754
:1015B0007047000008B508490968C9084FF47A72F5
:1015C000B1FBF2F14143009100BF00BF00994A1EF8
:1015D00000920029F9D108BD0C000020704710B519
:1015E000FFF75CFB10BD00B58FB0282105A8FEF702
:1015F000C2FD14216846FEF7BEFD012005900004DF
:101600000690002007900120099002200C90C10351
:101610000D914FF4E0110E9105A8FFF7FFFC08B102
:10162000FEF75FFE0F200090022001900020029044
:101630004FF4806003900020049002216846FFF779
:10164000EFFB08B1FEF74DFE0FB000BD704700BFC5
:10165000FEE700000FB41CB50246002007AC0029CD
:101660000BD0491ECDE90021054B6A46214606985C
:1016700000F034F8009A002111701CBC5DF814FBD6
:101680003F1B000802480068C0F3022070470000BA
:101690000CED00E010B5002804DB0A07130E054A24
:1016A000135406E00A07140E034A00F00F031B1F31
:1016B000D45410BD00E400E018ED00E002E008C8DA
:1016C000121F08C1002AFAD170477047002001E0BC
:1016D00001C1121F002AFBD1704700002DE9FF4F06
:1016E0008DB00F460546002606E025280BD0DDE923
:1016F0000F1290476D1C761C28780028F5D111B088
:101700003046BDE8F08F0024A246A1460122EC49F4
:1017100000E0044315F8013F203B02FA03F00842C1
:10172000F7D128782A2810D06FF02F022878A0F15E
:101730003001092914D80AEB8A0102EB410144F077
:10174000020400EB010A6D1CF0E701CF5FEA000A1A
:1017500003D544F40054CAF1000A44F002046D1C9D
:1017600028782E2817D115F8010F44F004042A28F0
:101770000ED06FF02F022878A0F1300109290AD885
:1017800009EB890102EB410100EB01096D1CF2E755
:1017900057F8049B6D1C28786C280FD006DC4C2869
:1017A00017D068280DD06A2814D104E0742810D00E
:1017B0007A280FD10DE044F400140AE044F48014B8
:1017C00001E044F440146978814202D104F58014A8
:1017D0006D1C6D1C2A786E2A1FD00CDC632A31D058
:1017E00004DC002A8BD0582A11D1A3E0642A68D0E7
:1017F000692A0CD165E0732A2ED004DC6F2A73D0DD
:10180000702A04D19BE0752A6FD0782A6ED01046DA
:10181000DDE90F129047761C50E1C4F30250022814
:1018200006D0032809D0042801CF09D0066045E17D
:1018300001CFF117C0E9006140E101CF06803DE131
:1018400006703BE117F8040B8DF8000000208DF8BE
:101850000100EB46012003E057F804BB4FF0FF30D6
:1018600061074FF0000102D40DE008F10101884644
:1018700049450FDA8045F8DB1BF808100029F4D140
:1018800008E008F1010188468142FADB1BF80810E4
:101890000029F6D1DDE90F23AAEB08008146214695
:1018A00000F036F9304400EB080604E0DDE90F12E1
:1018B0001BF8010B9047B8F10108F7D221464846C2
:1018C000F7E00A21C4F302534FF0000B0891022BFA
:1018D00004D001CFC117032B09D00AE0FF1D27F068
:1018E0000707F7E8020108E032E01FE020E000B25D
:1018F000C117042B01D140B2C117031E71F10003BF
:1019000007DA4FF0000CD0EB0C006CEB01012D233B
:1019100002E0230504D52B238DF82430012303E0B6
:10192000E30701D02023F7E7984658E00A2110E0AA
:1019300010210EE010204FF0000B08900CE0102159
:101940004FF0000B44F004044FF00809089103E045
:1019500008214FF0000B0891C4F30253022B04D06E
:1019600001CF0021032B06D006E0FF1D27F007075B
:10197000F7E8020103E080B2042B00D1C0B24FF0BF
:10198000000823072BD5702A07D0DDF820C08CF083
:10199000100C5CEA0B0C05D00EE040238DF82430CF
:1019A000012308E050EA010306D030238DF82430EB
:1019B0008DF8252002239846DDF820C08CF0080C15
:1019C0005CEA0B0C0BD150EA010301D1630706D589
:1019D00030238DF824304FF00108A9F10109582A6D
:1019E00004D038A20B9208AA0A920BE03AA2F9E7B7
:1019F0005B46089AFEF7CAFB0B9B9B5C0A9A521E39
:101A00000A92137050EA0102F2D10A98ADEB00007D
:101A100000F1200B600702D524F4803401E04FF080
:101A20000109D94502DDA9EB0B0000E0002000EB25
:101A30000B0141440890AAEB010AE00306D4DDE95A
:101A40000F232146504600F063F806444FF000098A
:101A500008E009A911F80900DDE90F12904709F122
:101A60000109761CC145F4DBE0030CD5DDE90F2349
:101A70002146504600F04CF8064404E0DDE90F1220
:101A800030209047761C0899481E08900029F5DC04
:101A900008E00A980A990078491C0A91DDE90F12BA
:101AA0009047761CBBF10001ABF1010BF1DC214644
:101AB0005046DDE90F2300F019F806446D1C1BE6C3
:101AC0000928010030313233343536373839616214
:101AD00063646566000000003031323334353637D8
:101AE0003839414243444546000000002DE9F041A9
:101AF000044600251E461746880404D405E03946EE
:101B00002020B0476D1C641EF9D52846BDE8F08141
:101B10002DE9F041044600251E469046C80301D534
:101B2000302700E02027880404D505E041463846E8
:101B3000B0476D1C641EF9D52846BDE8F0814A689F
:101B4000002A06D00A68531C0B6010704868401EBB
:101B500048607047014601EB8100024A02EBC00079
:101B6000807D704790040020014601EB8100024A0D
:101B700002EBC000007D704790040020014601EB9D
:101B80008100024A02EBC000407D704790040020B3
:101B9000FFF790F8FFF727FDFFF7B2FCFFF78CFC8B
:101BA00000F0C8FBFEF748FB00F0C0FA01E000F0CF
:101BB0002FFDFCE770B504460D4605EB8501044A90
:101BC00002EBC10014222146FEF7BCFA70BD0000F2
:101BD0009004002070B506460D46072416E02846FE
:101BE00000F03CF846FA04F000F0010018B928466D
:101BF00000F058F802E0284600F066F8284600F0A9
:101C00003FF8284600F02AF8601E44B2002CE6DABD
:101C100070BD10B50446204600F056F8204600F08E
:101C20002FF8204600F03EF8204600F017F810BDCF
:101C300010B50446204600F023F8204600F032F8A4
:101C4000204600F041F810BD10B50446204600F0D3
:101C500017F8204600F002F810BD000000EB8011DC
:101C6000064A02EB01118988090400EB8012034B3C
:101C700003EB02121268116100BF70478000002060
:101C800000EB8011064A02EB0111898800EB8012FB
:101C9000034B03EB02121268116100BF7047000092
:101CA0008000002000EB8011064A02EB01118989B7
:101CB000090400EB8012034B03EB021292681161DE
:101CC00000BF70478000002000EB8011064A02EB45
:101CD0000111898900EB8012034B03EB0212926819
:101CE000116100BF70470000800000202DE9F04125
:101CF00006460F4614462046FFF78BFF2146782004
:101D0000FFF768FF2046FFF79FFF21464020FFF7BF
:101D100061FF2046FFF798FF002508E0705D21462F
:101D2000FFF758FF2046FFF78FFF681CC5B2BD4282
:101D3000F4D32046FFF77CFFBDE8F08170B505467F
:101D40000C462046FFF765FF21467820FFF742FF4B
:101D50002046FFF779FF21460020FFF73BFF204692
:101D6000FFF772FF21462846FFF734FF2046FFF7B2
:101D70006BFF2046FFF75CFF70BD0000014601EBE2
:101D80008100034A02EBC00090F825007047000074
:101D90009004002010B500210348FEF7CFFB08B1E6
:101DA000012010BD0020FCE72C000020014601EBC3
:101DB0008100024A02EBC000006A704790040020D4
:101DC000014601EB8100024A02EBC00080687047C7
:101DD00090040020014601EB8100024A02EBC000A2
:101DE0000069704790040020014601EB8100024A1F
:101DF00002EBC000C068704790040020014601EB70
:101E00008100024A02EBC000C069704790040020C4
:101E100010B504460021204600F0FAF800212046C3
:101E200000F014F90021204600F0E8F800212046D7
:101E300000F002F910BD2DE9F0418046FEF728FFC1
:101E400004464046FFF790FE05464046FFF796FEE3
:101E500006464046FFF77EFE28B12946404600F080
:101E6000E1F8BDE8F081012D27D136BB214640467F
:101E700000F0E2F84046FFF781FF01281DD14046FF
:101E8000FFF794FF271A4046FFF7A4FF874210D8B8
:101E90000321404600F0BCF80021404600F0D6F88F
:101EA0000021404600F0AAF82946404600F0BAF862
:101EB000D7E70021404600F0C9F80DBB012E1FD125
:101EC0004046FFF79BFF271A4046FFF78DFFB842B9
:101ED00004D80221404600F09BF80CE04046FFF792
:101EE0006FFFB84207D82146404600F087F801212D
:101EF000404600F0ABF80021404600F09DF800BFDE
:101F00004046FFF73BFF012814D14046FFF74EFF44
:101F1000271A4046FFF75EFF87420BD90121404652
:101F200000F076F80021404600F090F8002140468D
:101F300000F064F82946404600F074F800BF90E7CE
:101F400010B5002407E0204600F08AF82046FFF78D
:101F500072FF601CC4B2042CF5DB10BD70B50546E1
:101F60000C4621462846FFF725FEA87930B9A988F6
:101F70002868FEF77FFE08B901260BE0A879012842
:101F800007D1A9882868FEF775FE012801D101262E
:101F900000E00026002104EB8400174A02EBC00099
:101FA000817504EB8400114601EBC000067504EB5B
:101FB000840001EBC0004675002104EB840002EBB5
:101FC000C000816104EB840002EBC000C16104EB3E
:101FD000840002EBC000016204EB8400114601EBB7
:101FE000C00080F82460002104EB840002EBC000F4
:101FF00080F8251070BD00009004002000EB8002E6
:10200000024B03EBC20211627047000090040020F3
:1020100000EB8002024B03EBC20291757047000097
:102020009004002000EB8002024B03EBC2025175CA
:10203000704700009004002000EB8002024B03EB8D
:10204000C202D161704700009004002000EB8002C2
:10205000024B03EBC20282F8251070479004002067
:102060002DE9F041044604EB84022F4B03EBC2023E
:10207000918804EB840253F83200FEF7FBFD07461B
:1020800004EB8400284901EBC0008079B84201D1FB
:10209000012500E0002504EB8400234901EBC0008A
:1020A000007DA84236D0FEF7F3FD064604EB84001F
:1020B0001D4901EBC000806928B904EB840001EBE5
:1020C000C000866125E004EB8400174901EBC000E5
:1020D0008069301A04EB8401134A02EBC10189685C
:1020E000884216D304EB8400114601EBC000017D49
:1020F00004EB840002EBC000417504EB8400114640
:1021000001EBC0000575002104EB840002EBC00068
:10211000816106E0002104EB8400034A02EBC00069
:102120008161BDE8F08100009004002000B58BB013
:102130000020069001200990002005900190029057
:102140000390049001200890002007900A9001A9B4
:102150000348FEF76EF90248FEF7CCFB0BB000BD5A
:102160002C00002010B5FFF715FE012816D10C49F0
:102170000C4800F01DF80B48806820B90948006839
:102180000949086003E007484068074908600548B6
:10219000C06818B90348007C0449087010BD0000ED
:1021A0001000002054000020200000202800002003
:1021B00070B504460D462B46224600210148FEF725
:1021C000D1F970BD2C0000202DE9F04188B0044603
:1021D0000E4617461D46DDF8388004950696CDF864
:1021E000148000208DF81C000DB9029400E00394C7
:1021F00001AB3A4602A90348FEF776F808B0BDE8FD
:10220000F08100002C00002010B5044604EB84117E
:10221000044A02EB011101F110004FF48061FDF757
:10222000AAFF10BD8000002010B504462146AE2054
:10223000FFF784FD21460020FFF780FD2146102096
:10224000FFF77CFD21464020FFF778FD21468120E5
:10225000FFF774FD2146CF20FFF770FD2146A12036
:10226000FFF76CFD2146C820FFF768FD2146A62038
:10227000FFF764FD2146A820FFF760FD21463F20BF
:10228000FFF75CFD2146D320FFF758FD21460020D3
:10229000FFF754FD2146D520FFF750FD2146802051
:1022A000FFF74CFD2146D920FFF748FD2146F120DC
:1022B000FFF744FD2146DA20FFF740FD21461220BA
:1022C000FFF73CFD2146DB20FFF738FD214640208B
:1022D000FFF734FD21462020FFF730FD2146022084
:1022E000FFF72CFD21468D20FFF728FD2146142005
:1022F000FFF724FD2146A420FFF720FD2146A6205C
:10230000FFF71CFD2146AF20FFF718FD10BD0000B0
:1023100070B505460C4604EB8410054901EB00102E
:1023200095E84E004EC02046FFF77EFF70BD0000CE
:10233000800000201FB50748009002908015ADF87E
:1023400004004000ADF80C0000216846FFF7E0FFF4
:102350001FBD0000000C014070B5054600241BE0C5
:1023600004F1B001C8B22946FFF7E8FC2946002075
:10237000FFF7E4FC29461020FFF7E0FC05EB851190
:10238000074A02EB0111103101EBC4102A468021EB
:10239000FFF7ACFC601CC4B2082CE1DB70BD000090
:1023A000800000202DE9FF4F83B0119C03F0070649
:1023B0000EB1012600E0002606EBE3064FEA630AB1
:1023C00006FB0AFC059EA6F120098FB20C2B01D159
:1023D000794D0AE0102B01D1784D06E0182B01D180
:1023E000774D02E007B0BDE8F08F0022DEE009FB88
:1023F0000C26AE5D02964FF00008D0E0029E06F07B
:10240000800686B3109E7EBBC1F3CF0601F0070A9B
:10241000CDF804A04FF0010BDDF804A00BFA0AFB85
:102420001FFA8BFACDF800A004EB841ADFF894B100
:102430000BEB0A1A0AF1100A00EBC61B1AF80BA0E4
:10244000DDF800B04AEA0B0A0AF0FF0B04EB841A2D
:10245000DFF870E10EEB0A1A0AF1100A00EBC61E53
:102460000AF80EB08CE02DE0FFE7C1F3CF0601F0D3
:10247000070ACDF804A04FF0010BDDF804A00BFA19
:102480000AFB1FFA8BFACDF800A004EB841ADFF8E0
:1024900034B10BEB0A1A0AF1100A00EBC61B1AF84A
:1024A0000BA0DDF800B02AEA0B0A04EB841BDFF86E
:1024B00014E10EEB0B1B0BF1100B00EBC61E0BF81F
:1024C0000EA05DE0109E66BBC1F3CF0601F0070AC7
:1024D000CDF804A04FF0010BDDF804A00BFA0AFBC5
:1024E0001FFA8BFACDF800A004EB841ADFF8D4B001
:1024F0000BEB0A1A0AF1100A00EBC61B1AF80BA024
:10250000DDF800B02AEA0B0A04EB841BDFF8B4E024
:102510000EEB0B1B0BF1100B00EBC61E0BF80EA005
:102520002EE0C1F3CF0601F0070ACDF804A04FF06A
:10253000010BDDF804A00BFA0AFB1FFA8BFACDF8A9
:1025400000A004EB841ADFF87CB00BEB0A1A0AF146
:10255000100A00EBC61B1AF80BA0DDF800B04AEA1F
:102560000B0A0AF0FF0B04EB841ADFF858E00EEBBD
:102570000A1A0AF1100A00EBC61E0AF80EB000BFD4
:10258000029E7606360E0296491CCE1B9E4202D152
:102590003946401C07E008F101061FFA86F8B8F139
:1025A000080FFFF62BAF00BF561CB2B26245FFF416
:1025B0001EAF00BF16E70000C2270008362C000837
:1025C00026320008800000202DE9FC4306460F4615
:1025D00014461D46DDE9098912E0CDE9008922781B
:1025E0002B4639463046FFF7DDFE06EB650086B226
:1025F000C5F18000B04202DA0026781987B2641C67
:102600002078202802DB20787E28E6DDBDE8FC83E8
:102610002DE9FC41FFF794FC0020FFF7F5FD0020B9
:10262000009010234AA2014601900820FFF7CCFF3A
:1026300000200090102348A2194601900820FFF7BF
:10264000C3FF00200090102345A220210190082004
:10265000FFF7BAFF00200090102343A23021019021
:102660000820FFF7B1FF0020FFF774FA04460120AD
:10267000FFF770FA05460220FFF76CFA07460320C1
:10268000FFF768FA0646012C1DD100200346384AA0
:1026900000903848017838480068FFF795FD3448C5
:1026A0000078401C3249087008464078401C487049
:1026B00008468078401C88700846C078401CC87066
:1026C0000020FFF7A5FB012D02D10120FFF7A0FBA1
:1026D000FFF748FD284829A2102103682948FEF782
:1026E000B9FF002000901023264A014601903020B7
:1026F000FFF76AFF244821A2102103682148FEF752
:10270000A9FF0020009010231E4A19460190302096
:10271000FFF75AFF1D4803781DA210211948FEF744
:1027200099FF002000901023164A202101903020AC
:10273000FFF74AFF002000901023164A3021019035
:102740000846FFF741FF0020FFF706FEBDE8FC81C9
:10275000545849443A000000525849443A00000095
:102760004C656E3A00000000444154413A000000BC
:102770001800002029000020240000203078253097
:10278000336C58007000002020000020280000203A
:102790002564000010000020020304050607080954
:1027A0000A0B0C0D0E0F10100102000000000000BB
:1027B00000000102030406070809000000000102EE
:1027C0000304000000000000000000000000000002
:1027D00000003F400000000000000000300040000A
:1027E00030004000000009000BC03D000BC03D0060
:1027F000090018C024407FE022403180000018000A
:1028000024C01B000D803240018003801C40274003
:102810001C80074000401000600000000000000025
:1028200000000000000000001F8020404020000049
:10283000402020401F8000000000090006001F808B
:10284000060009000000040004003F8004000400AA
:102850000000001000600000000000000000040004
:102860000400040004000400000000000040000018
:10287000000000000000002001C0060038004000F9
:1028800000001F802040204020401F8000000000EA
:1028900010403FC000400000000018C0214022400E
:1028A00024401840000010802040244024401B8019
:1028B000000002000D0011003FC0014000003C80FC
:1028C000244024402440238000001F8024402440D2
:1028D0003440038000003000200027C03800200072
:1028E00000001B802440244024401B8000001C006A
:1028F00022C0224022401F8000000000000008404B
:102900000000000000000000000004600000000063
:102910000000000004000A0011002080404009006F
:102920000900090009000900000000004040208063
:1029300011000A00040018002000234024001800A1
:1029400000001F802040274029401F400000004019
:1029500007C039000F0001C0004020403FC02440A4
:1029600024401B8000001F802040204020403080F9
:10297000000020403FC0204020401F800000204039
:102980003FC024402E4030C0000020403FC02440C3
:102990002E00300000000F001080204022403380C5
:1029A000020020403FC0040004003FC020402040FF
:1029B00020403FC020402040000000602020202018
:1029C0003FC02000200020403FC024400B0030C00A
:1029D000204020403FC020400040004000C03FC099
:1029E0003C0003C03C003FC0000020403FC00C4002
:1029F00023003FC020001F802040204020401F8037
:102A0000000020403FC024402400180000001F8028
:102A10002140214020E01FA0000020403FC0244072
:102A2000260019C0004018C02440244022403180B4
:102A30000000300020403FC0204030000000200057
:102A40003F80004000403F80200020003E0001C049
:102A5000070038002000380007C03C0007C03800DD
:102A60000000204039C0060039C02040000020008E
:102A7000384007C0384020000000304021C02640C8
:102A8000384020C00000000000007FE040204020CF
:102A90000000000070000C000380004000000000F7
:102AA000402040207FE000000000000020004000A7
:102AB00020000000000000100010001000100010A6
:102AC00000100000000040000000000000000000B6
:102AD00002800540054003C0004020003FC0044084
:102AE00004400380000000000380044004400640CE
:102AF000000000000380044024403FC0004000006C
:102B000003800540054003400000000004401FC052
:102B1000244024402000000002E0055005500650EB
:102B2000042020403FC00440040003C000400000D7
:102B3000044027C0004000000000001000100410F6
:102B400027E00000000020403FC00140070004C013
:102B50000440204020403FC000400040000007C02B
:102B6000040007C0040003C00000044007C0044084
:102B7000040003C0004000000380044004400380C0
:102B80000000041007F0045004400380000000001F
:102B900003800440045007F00010044007C00240C6
:102BA000040004000000000006400540054004C089
:102BB0000000000004001F800440004000000400EA
:102BC00007800040044007C000400400070004C024
:102BD000018006000400060001C0070001C00600D5
:102BE0000000044006C0010006C0044000000410BC
:102BF000071004E00180060004000000044005C046
:102C00000640044000000000000004007BE040207B
:102C10000000000000000000FFF0000000000000C5
:102C200040207BE0040000000000400080004000E5
:102C30002000200040000000000000000000000014
:102C40000000000000000000000000001FCC000C8D
:102C500000000000000000000800300060000800D4
:102C6000300060000000022003FC1E20022003FC54
:102C70001E200220000000000E1811043FFF1084E7
:102C80000C78000000000F0010840F3800C0077897
:102C900018840078000000780F8410C411240E9866
:102CA00000E40084000808006800700000000000D4
:102CB00000000000000000000000000007E01818FD
:102CC000200440020000000040022004181807E021
:102CD0000000000000000240024001800FF001806F
:102CE0000240024000000080008000800FF8008059
:102CF0000080008000000001000D000E00000000B8
:102D000000000000000000000080008000800080C3
:102D10000080008000800000000C000C000000001B
:102D200000000000000000000006001800600180A4
:102D3000060018002000000007F008081004100426
:102D4000080807F000000000080408041FFC000445
:102D500000040000000000000E0C101410241044A9
:102D600011840E0C000000000C1810041104110452
:102D700012880C700000000000E0032004240824E6
:102D80001FFC0024000000001F981084110411048F
:102D9000108810700000000007F00888110411046A
:102DA00018880070000000001C00100010FC1300C8
:102DB0001C001000000000000E3811441084108424
:102DC00011440E38000000000700088C1044104425
:102DD000088807F00000000000000000030C030C4E
:102DE00000000000000000000000000101060000DB
:102DF00000000000000000000080014002200410DC
:102E000008081004000002200220022002200220F4
:102E10000220022000000000100408080410022014
:102E200001400080000000000E001200100C106C29
:102E300010800F00000003E00C1813E4142417C4E2
:102E4000082807D000000004003C03C41C400740D1
:102E500000E4001C000410041FFC11041104110400
:102E60000E880070000003E00C1810041004100419
:102E700010081C10000010041FFC100410041004A3
:102E8000080807F0000010041FFC1104110417C407
:102E900010040818000010041FFC1104110017C0D2
:102EA00010000800000003E00C1810041004104487
:102EB0001C780040000010041FFC1084008000807B
:102EC00010841FFC10040000100410041FFC1004E8
:102ED00010040000000000030001100110011FFE9B
:102EE00010001000000010041FFC11040380146483
:102EF000181C1004000010041FFC1004000400043F
:102F00000004000C000010041FFC1F0000FC1F0048
:102F10001FFC1004000010041FFC0C04030000E060
:102F200010181FFC100007F008081004100410040B
:102F3000080807F0000010041FFC108410801080A7
:102F400010800F00000007F0081810241024101C37
:102F5000080A07F2000010041FFC1104110011C040
:102F600011300E0C000400000E1C1104108410849B
:102F700010441C3800001800100010041FFC10043E
:102F800010001800000010001FF8100400040004D6
:102F900010041FF8100010001E0011E0001C00704B
:102FA00013801C0010001FC0103C00E01F0000E058
:102FB000103C1FC000001004180C163401C001C0E2
:102FC0001634180C100410001C00130400FC130429
:102FD0001C00100000000804101C1064108413046E
:102FE0001C04101800000000000000007FFE4002DA
:102FF000400240020000000030000C00038000602E
:10300000001C0003000000004002400240027FFE5E
:103010000000000000000000000020004000400010
:10302000400020000000000100010001000100013B
:1030300000010001000100004000400020000000ED
:103040000000000000000000009801240144014439
:10305000014400FC000410001FFC0088010401046E
:103060000088007000000000007000880104010466
:1030700001040088000000000070008801040104C1
:1030800011081FFC0004000000F801440144014441
:10309000014400C800000000010401040FFC1104F9
:1030A000110411001800000000D60129012901298E
:1030B00001C90106000010041FFC0084010001008A
:1030C000010400FC000400000104190419FC0004C0
:1030D00000040000000000000003000101011901CC
:1030E00019FE0000000010041FFC0024004001B481
:1030F000010C010400000000100410041FFC000477
:10310000000400000000010401FC0104010001FCB6
:103110000104010000FC010401FC00840100010025
:10312000010400FC0004000000F801040104010493
:10313000010400F80000010101FF00850104010401
:103140000088007000000000007000880104010485
:10315000010501FF00010104010401FC00840104D8
:10316000010001800000000000CC012401240124A2
:1031700001240198000000000100010007F801048B
:10318000010400000000010001F800040004000434
:10319000010801FC0004010001800170000C001016
:1031A00001600180010001F0010C003001C000301D
:1031B000010C01F0010000000104018C0074017099
:1031C000018C01040000010101810171000E001851
:1031D00001600180010000000184010C0134014400
:1031E0000184010C0000000000000000000001004C
:1031F0003EFC400240020000000000000000FFFF13
:103200000000000000000000400240023EFC0100FF
:10321000000000000000000060008000800040000E
:10322000400020002000000000000000000000001E
:10323000000000000000000000000000000000008E
:10324000000000000000000000000000000000007E
:103250000000000000000000000F80380FFE380F53
:1032600080380000000000000000000000000000A6
:10327000000000000100000600000C000038000003
:103280003100000600000C00003800003000000093
:1032900000000000000061800067F807F98000610D
:1032A000800061800061800061800067F807F9801C
:1032B00000618000000000000000000001C0E00389
:1032C000E0F00630080418081FFFFE040E08078708
:1032D000F00381E000000000000001F000060C0097
:1032E000040408060C7001F9C0000E00003BE00069
:1032F000EC18070808040C180003E00000000001A7
:10330000E00007F003F818041C0804170807E1D0D0
:1033100003C0E00023B0003C0800200800001000BB
:1033200000000000000100003100003200001C001D
:10333000000000000000000000000000000000008D
:10334000000000000000000000000000000000007D
:103350000000000000007F0001FFC00780F00C00AB
:1033600018100004200002000000000000200002ED
:103370001000040C00180780F001FFC0007F00005F
:10338000000000000000000000000000000000003D
:1033900000004200006600006600003C00001800CB
:1033A00003FFC0001800003C00006600006600003B
:1033B00042000000000008000008000008000008AB
:1033C0000000080001FFC00008000008000008001D
:1033D00000080000080000000000000100003100AB
:1033E000003200001C00000000000000000000008F
:1033F00000000000000000000000000000000800C5
:103400000008000008000008000008000008000094
:10341000080000080000080000080000000000008C
:1034200000000000000038000038000038000000F4
:10343000000000000000000000000000000000008C
:10344000000000000000000600001C0000700001E9
:1034500080000E0000380000C0000700001C0000C3
:10346000300000000000000000007F8001FFE0034A
:103470008070060018040008040008060018038085
:103480007001FFE0007F80000000000000000000ED
:1034900001000801000801000803FFF807FFF80019
:1034A0000008000008000008000000000000000004
:1034B0000001C03802C05804009804011804021822
:1034C000040418061C1803F81801E0F800000000B6
:1034D000000000000001C0E003C0F0040008040880
:1034E0000804080806180803F41801E7F00001E0D2
:1034F000000000000000000000000300000D0000BC
:10350000110000610000810803010807FFF80FFFA8
:10351000F80001080001080000000000000000E0C1
:1035200007FCD00608080610080610080610080652
:103530001838060FF00607C0000000000000000069
:1035400000003F8001FFE0038430020818041008E7
:10355000041008041008071810030FF00007C0003B
:10356000000000000000000003C00007000006008B
:10357000000600F80607F806180006E0000700003D
:1035800006000000000000000001E1E003F7F00683
:103590003410041808041808040C08040C08061653
:1035A0001803F3F001C1E000000000000000F80083
:1035B00003FC30030638040208040208040208046D
:1035C00004100308F001FFC0007F000000000000AD
:1035D0000000000000000000000000000000703843
:1035E000007038007038000000000000000000008B
:1035F00000000000000000000000000000000000CB
:103600000000301A00301C00000000000000000024
:1036100000000000000000000000000000080000A2
:1036200014000022000041000080800100400200E0
:103630002004001008000800000000000000210025
:1036400000210000210000210000210000210000D5
:1036500021000021000021000021000000000000E6
:1036600000000000080008040010020020010040D3
:1036700000808000410000220000140000080000CB
:10368000000000000003C00004C0000400000800A7
:1036900038080F380808380810000C300007E00020
:1036A00003C000000000000000003F8000FFE003B6
:1036B0008070020F1006708804C088048308047F9D
:1036C0008802C09003012000FE400000080000189E
:1036D0000001F8003E0801C20007020007E20000F6
:1036E000FE00001FC80001F80000380000080400B8
:1036F0000807FFF807FFF80408080408080408088A
:1037000004080806180803F41801E7F00001E000B7
:103710000000000000003F8001FFE0038070020015
:103720001804000804000804000804001006002023
:103730000780C000000004000807FFF807FFF80436
:1037400000080400080400080400180200100380A8
:103750007001FFE0007F8000000004000807FFF810
:1037600007FFF80408080408080408080408080407
:103770003E08040008060018010060000000040074
:103780000807FFF807FFF804080804080004080009
:10379000040800043E00060000060000018000004E
:1037A0000000000000003F8001FFE0038070060081
:1037B000180400080402080402080203F00783F05A
:1037C00000020000020004000807FFF807FFF804E9
:1037D00008080008000008000008000008000408AD
:1037E0000807FFF807FFF8040008000000000000C9
:1037F00004000804000804000807FFF807FFF804A5
:103800000008040008040008000000000000000098
:103810000000000600000700000104000104000190
:1038200004000307FFFE07FFFC040000040000047F
:10383000000004000807FFF807FFF8040C08001850
:1038400000003E0004C7800503C80600F8040038E5
:1038500004001800000804000807FFF807FFF80438
:103860000008000008000008000008000008000030
:103870000800001800006000000004000807FFF8BE
:1038800007800807FC00007FC00003F80007C000A5
:10389000780007800807FFF807FFF8040008040015
:1038A0000807FFF807000803C00000E00000380028
:1038B000001E000007000001C00400F007FFF8042C
:1038C0000000000000007F8001FFE0038070060020
:1038D0001804000804000806001803003001FFE087
:1038E000007F8000000004000807FFF807FFF804CD
:1038F0000408040400040400040400040400060C8A
:103900000003F80001F000000000000000007F80CC
:1039100001FFE00380700600880400880400C806E8
:10392000003C03003E01FFE6007F8400000004002D
:103930000807FFF807FFF8040808040800040C0053
:10394000040F00040BC00610F003F03801E008007B
:10395000000800000001E0F803F030063010041801
:1039600008041808040C08040C080206180207F0E2
:103970000781E00000000180000600000400000450
:10398000000004000807FFF807FFF804000804001F
:103990000004000006000001800004000007FFE0B2
:1039A00007FFF004001800000800000800000800ED
:1039B000000800000804001007FFE00400000400F5
:1039C0000006000007E00007FE00041FE00001F809
:1039D0000000380001E0043E0007C00006000004BB
:1039E000000004000007E00007FFC0041FF8000704
:1039F000C007F80007FF80043FF80007C004F80084
:103A0000070000040000000000040008060018077A
:103A1000C07805F1C8003E00001F800463E80780FD
:103A2000F80600180400080000000400000600006A
:103A300007800007E008047C08001FF80007F80072
:103A4000180804E008070000060000040000000059
:103A5000000100080600380400F80403E8040F0819
:103A6000047C0805F00807C008070018040060007F
:103A70000000000000000000000000000000000046
:103A8000003FFFFE20000220000220000220000272
:103A900020000200000000000000000008000007F5
:103AA000000000C0000038000006000001C0000057
:103AB0003000000E000001000000000000000000C7
:103AC0002000022000022000022000022000023F0D
:103AD000FFFE0000000000000000000000000000E9
:103AE000000000000000000800001000003000008E
:103AF000200000300000100000080000000000005E
:103B000000000000010000010000010000010000B1
:103B1000010000010000010000010000010000019F
:103B20000000010000010000000000000000002073
:103B30000000200000100000100000000000000045
:103B4000000000000000000000000000000000F085
:103B50000019F8001B18002208002608002408009D
:103B60002410003FF8001FF80000080000180000B3
:103B70000004000007FFF80FFFF0001818001008FD
:103B8000002008002008003018001FF0000FC000BF
:103B900000000000000007C0001FF00018300020E7
:103BA00008002008002008003C08001C10000060ED
:103BB0000000000000000000000007C0001FF0002F
:103BC000381800200800200800200804101007FF03
:103BD000F80FFFF0000010000000000000000000DF
:103BE0000007C0001FF00012300022180022080059
:103BF0002208003208001E10000E20000000000005
:103C00000000200000200800200801FFF803FFF852
:103C100006200804200804200807200003000000F4
:103C2000000000000000000E000E6E001FF30031C7
:103C3000B10020B10020B1003191001F13002E1EF1
:103C400000200E00300000000004000807FFF80FFD
:103C5000FFF8001008002000002000002008003FAE
:103C6000F8001FF80000080000000000000000003D
:103C7000002008002008002008063FF8063FF80052
:103C8000000800000800000800000000000000001C
:103C900000000000000003000003002001002001DC
:103CA000002003063FFE063FFC000000000000006D
:103CB000000000000004000807FFF80FFFF80001F3
:103CC00088000300002FC00038F8002038002008CA
:103CD00000000800000000000000000004000804CC
:103CE000000804000807FFF80FFFF80000080000B4
:103CF00008000008000000000000002008003FF855
:103D0000003FF8001008002000003FF8003FF800D6
:103D10001008002000003FF8003FF80000080000F5
:103D200000002008003FF8003FF8001008001000D5
:103D3000002000002008003FF8001FF800000800E5
:103D400000000000000007C0000FF0001830003035
:103D500008002008002008003008001830000FF08C
:103D60000007C0000000000000002001003FFF002D
:103D70003FFF00101100200900200800200800303B
:103D800038001FF0000FC00000000000000007C056
:103D9000001FF0003818002008002008002009004B
:103DA0001011001FFF003FFF000001000000002075
:103DB00008002008002008003FF8003FF80008082D
:103DC0000010080020080020000030000030000033
:103DD0000000000000000000000C78001E180033F6
:103DE000080023080021080021880021980030F0F5
:103DF00000386000000000000000200000200000EB
:103E0000200000FFF003FFF8002008002008002039
:103E1000080000300000000000000000000020004A
:103E2000003FF0007FF800001800000800000800C4
:103E30002010003FF8007FF000001000000000009C
:103E400000002000003000003C00003F800023F014
:103E5000000078000070002380003C00003000006B
:103E60002000002000003C00003FE00023F800009C
:103E7000E0002700003E00003FE00021F80001E0E4
:103E8000003E000020000000000020080020080084
:103E90003838003E680027800003C8002CF800383E
:103EA000380020180020080000000000000020005A
:103EB000003003003C01003F830023EC0000700051
:103EC0002380003C000020000020000000000000D3
:103ED000000000000038080020380020F80023E827
:103EE000002F88003E0800380800201800007000ED
:103EF00000000000000000000000000000000000C2
:103F0000000008000014001FF7FC3000062000022B
:103F100000000000000000000000000000000000A1
:103F20000000000000000000FFFFFF000000000094
:103F30000000000000000000000000000000000081
:103F40002000023000061FF7FC00140000080000EB
:103F50000000000000000000000000000000000061
:103F60000018000060000040000040000020000039
:103F70001000000800000400000400000C00001005
:103F800000000000A43F0008000000202C000000FA
:103F9000BC160008D03F00082C00002004090000D7
:103FA000CC16000800000000100000000100000016
:103FB00000127A00000000000000000061626364EB
:103FC0000000000000000000550500000004000093
:04000005080000ED02
:00000001FF
